:10000000001C0020ED0200000000000000000000C5
:1000100000000000000000000000000000000000E0
:1000200000000000000000000000000000000000D0
:10003000000000000000000000000000B50100000A
:10004000E1010000FD010000B9010000CD01000048
:1000500000000000002934D00123002210B488429F
:100060002CD301242407A14204D2814202D20901E7
:100070001B01F8E7E400A14204D2814202D2490008
:100080005B00F8E7884201D3401A1A434C08A042AB
:1000900002D3001B5C0822438C08A04202D3001B41
:1000A0009C082243CC08A04202D3001BDC08224358
:1000B000002803D01B0901D00909E3E7101C10BC7C
:1000C0007047002801D00020C04307B4024802A1B5
:1000D0004018029003BDC046D90000000029F0D0AE
:1000E00003B5FFF7B9FF0EBC4243891A1847C04653
:1000F000002941D010B4041C4C40A4460123002226
:10010000002900D54942002800D5404288422CD31E
:1001100001242407A14204D2814202D209011B0119
:10012000F8E7E400A14204D2814202D249005B0018
:10013000F8E7884201D3401A1A434C08A04202D380
:10014000001B5C0822438C08A04202D3001B9C08C1
:100150002243CC08A04202D3001BDC082243002823
:1001600003D01B0901D00909E3E7101C6446002CE9
:1001700000D5404210BC7047002806D003DB0020A9
:10018000C043400801E08020000607B4024802A1F5
:100190004018029003BDC046190000000029EBD0B2
:1001A00003B5FFF7A7FF0EBC4243891A1847C046A4
:1001B0007047C046FEE70000034B01225A70A0239F
:1001C0000022DB051A707047900C0020034B0122BF
:1001D0009A70A0230022DB059A707047900C0020D3
:1001E00008B5044B01221A70034B0022DA7700F0A5
:1001F000E3FE08BD900C00200800005038B58025B3
:10020000ED052B79DBB2002B0CD130490B604B6034
:100210002B89081C9BB28B608A680C30103106F069
:10022000A5FC47E0012B0DD1284BD968002941D00E
:100230005A68186982423DDA5A68501C58602B7A15
:100240008B5437E0022B30D1204CE368002B2AD0AE
:10025000226821698A420CDA22689B5C1BBAEB6037
:10026000A3682068C01880B206F0CAFC2368013376
:1002700017E0A2682368201C211CD2180C30103112
:1002800006F074FCE368002B0DD0A16822688A1880
:10029000A2601B781BBAEB60A06880B206F0B0FCCD
:1002A0000123236006E0EB6004E0032B02D1074B3F
:1002B00000225A60C0468023DB0501221A70C04626
:1002C00002221A7000221A7038BDC0461C0300209A
:1002D00080230222DB05FF321A600421024AFF312B
:1002E000118000221A70704706000040F8B5A02364
:1002F000DB059B68494A1F21DBB21160D12B0BD073
:10030000D02B01D80133DBB2A022D2059168FF20A7
:10031000814319439160F1E70023414A41499A180A
:100320008A4204D24049C95804331160F5E73F4B73
:100330003F4A191D043B934203D200221A600B1C52
:10034000F6E7EFF308823B4B191D043B9A4203D9B1
:10035000394818600B1CF7E7FFF7BAFF37493848F0
:10036000053904F0C7F8374C374D01235B42237140
:100370006371A371E3712B1C3C331A782B1C3D3342
:100380001B7880B21B02134398423FD106F0D6FB84
:100390002E4B2F4918882F4A88420BD06E7D188823
:1003A0002B7D36023343984204D113889BB22371CC
:1003B0001B0A637113888B421BD0EE7DA87D1388C6
:1003C00036023043834214D100200423013BDBB2C8
:1003D000FF2B07D0204EEF18F65C3F79B742F5D1DE
:1003E0000120F3E7002804D013889BB2A3711B0AF5
:1003F000E371637922791B0213438B4206D0E279C1
:10040000A37912021A43124B9A4204D1134B0222CF
:100410001A6062B6FEE701F015F9F7E72800005010
:10042000000000201C030020709E0000200300201C
:100430008C0C0020D80C0020CDCDCDCD00C000000C
:1004400000000000940C0020C0BF0000FEB30000BC
:10045000FFFF0000BEBF000000B4000000E100E0AC
:10046000014B18607047C0469C0C0020014B186877
:100470007047C0469C0C0020014B18607047C04676
:10048000A00C0020014B18687047C046A00C00204B
:10049000014B18687047C0460000002038B5134C67
:1004A000256804F055FC6862256804F055FCA862D4
:1004B000256804F055FC6861256804F055FCE86186
:1004C000256804F09DFCA861256804F0ADFC084B8C
:1004D00008491B68096828621878097C226841432A
:1004E00002331161F432136038BDC04600000020B1
:1004F000A00C00209C0C002082B0F0B589B0109CAC
:10050000151C0F930693029407900E1C119C03F088
:100510006FFFC7793A4B0497027A964206D11B685F
:100520000021DA69AB00D05A03910BE01A68354B11
:1005300052691968731C896803964B43EB180133A1
:100540009B00D05A0499714349194A00A418238882
:10055000069E0193019F7318874203D8C61B029F12
:10056000BE521CE0029EB61805960027F65F0136C3
:1005700010D01F787EB2B446013601DA013703E0AD
:100580006646002E06DD013F1F7002235B4223807A
:1005900001202FE0069F79180F78002F01D12080CD
:1005A0000CE07FB27C1C05D1019E059F301A38807B
:1005B000002002E0012F01D1FF2008701978039C70
:1005C000049E079F48B274437D19002805DC029EF3
:1005D000B25E013208D0002906D12A5700203E2AF7
:1005E00008DC0131197005E02A57002A01DD0139C4
:1005F0001970002009B0F0BC08BC02B01847C04612
:100600000000002008030020F0B58BB000AF03F01D
:10061000EFFE06F041FB584C6E4623689D689B69CF
:100620007D625A00111C0E319B00C9080E33C900AF
:10063000DB08DB00761AB546F61A6D4600216846DF
:10064000B546BD61FE6008F0F9FD002004F0BEFC77
:100650007E6A4A4A20681568B20052420368BA604E
:10066000321C5A439100F961B107711A7960910700
:10067000891A3A62013B32D344683E6A3219261C19
:100680005E437618B400FE68920034197C61FC6900
:10069000A2420BD07C690426A418A4466C69764259
:1006A000A458B44466463460043AF0E7BE683A6A37
:1006B000A419FC617C6A7E68121B3A628919D9E729
:1006C0002F49F8697E23D2B25B4208704A708A7063
:1006D000CB7001205223BA690B7106F0D5F906F0F0
:1006E000C7F80B2845D1002004F070FC224B196894
:1006F000224B08681C687B6AF86143439A003A629F
:100700009A07D21A3A617B61844666464A68013E7E
:10071000B446D5D3654655437E691A48B3181218B6
:100720005219BE6938695200B2182D18FE68AD0022
:1007300075199B003D603E6AB3420ED03D68E818D3
:10074000656904380668E858301A0025565F864205
:1007500000DA1080043B023AEDE7BD6876193E628C
:100760007D6A7E69761B7E617D683E6976193E6191
:10077000CBE7BD460BB0F0BD080300200000002011
:10078000C8030020FFFFFF7F08B502F087FA021EB2
:1007900005D10749A9230B7106F076F9FEE7054B51
:1007A0001B6803CB03F036FFFFF778FE08BDC04699
:1007B000CF030020080300200F4B00221B68191CE8
:1007C00094310A60181C0121A830494201608260FE
:1007D00008380260C1824283103841610260C26100
:1007E0000C300183191CB831026020390A848C3323
:1007F0000A601A607047C04600000020F0B585B05E
:1008000000AFB960386004F06DFD83000A33DB0887
:10081000DB006946C91A8D46041C684604F068FD71
:1008200063000833DB08DB006E46F21A95466D461E
:10083000281C7D6004F076FD504B1B681A1C943216
:10084000116863290BDD012040428446181C0021F9
:10085000A830654611601C38C561416201601168AD
:10086000013111601A1C9032116863290DDD0120DD
:1008700040428446181C0021A43011606546816006
:10088000191C05608C31012008601168013111606C
:100890001A1CA032116801290BDD01204042844658
:1008A000181C0021B630654611601E38C58341848E
:1008B0000160116801311160191C9C310A68012A1C
:1008C00009DD002201200A608A8340421A1C088345
:1008D0009832012111601A1C9C321168013111609B
:1008E0000022111C013C08D3A00030587D68091873
:1008F0006000285A121892B2F4E71C1C0020B025A0
:100900001E18AC46B444FE60664636688E4201D27C
:1009100065462960FD68A8352E688E4200D9296099
:10092000251CBA352E88964200D22A80251CB63561
:100930002E88964200D92A800438051C023C0835CE
:10094000DDD11A1C8C3212683E6892009A18111C74
:10095000AC31A43209681268BD688A1A32801A1C48
:1009600098321268BD4652009B181A1CB832B43334
:1009700012881B88D31A2B8005B0F0BD0000002020
:10098000F0B5234F1D1C3B68161C9A6985B0019178
:1009900092000021041C301C08F050FC3B68281C0D
:1009A000DA690021920008F049FC019F002F0CD069
:1009B000201C04F00BFB174B301C1B68291C5A69C8
:1009C000DB6906F073FA013FF0E7002C0FD1114B01
:1009D0001B685F699B69029304F0A8F9039004F017
:1009E000AFF90299031C039A381C06F073F9301C06
:1009F000291C019A06F0D0FA002C06D1054B201CC8
:100A00001D6804F009FCF835286005B0F0BDC0464B
:100A10000803002000000020F0B5274D87B02B68A8
:100A200005919A6A00219200039008F007FC06F0F5
:100A30003FF904904478002C25D0042004F0C6FA35
:100A40002868026A0292029B013B019319D3436A10
:100A50000199039E5943C918890071180439013B53
:100A60000DD38668029F7E439E19059F0136B6000E
:100A7000F2590E689446B44467460F60EEE7019A57
:100A8000E0E7013CD7E72F683D6A013D11D37C6A5E
:100A9000039A261C6E433619B6009619043E013C93
:100AA000F3D3049B30685978FFF7D4FA0004306020
:100AB000F4E707B0F0BDC0460803002030B5214D73
:100AC00085B02B681A1CD8321178603A002904D1FD
:100AD000191CBC310978002901D00021117014784B
:100AE000002C1ED0DA6F184901925A6B0020029236
:100AF000DB6A01AA039303234B707C235B42CB7018
:100B000010230B7105F0C0FF2B680024191DDA6F4C
:100B1000C96F8A4202DC0132DA6710E0DC67012427
:100B20000DE05A6BDB6A09490192029309206423A4
:100B300001AA0B71039405F0A7FF2B68DC67201C4A
:100B400005B030BD00000020140100201B01002072
:100B5000F0B591B004AFF960BA61FB61386106F09D
:100B6000A7F88E4EB86034686946A06823684200D2
:100B700002335A43131C0833DB08DB00C91A8D46C5
:100B800004AE301C00213E6208F058FB2568626804
:100B900004356D002B1C0833DB0804326E4652000E
:100BA000DB00F01A131C0833DB08DB008546C01A93
:100BB0007E6004AE854604AC201C00217E6208F0F5
:100BC0003DFB2A1C0021786A08F038FB744D296827
:100BD0004B690A1C89692C3200913E690196796A39
:100BE00004310291211D0391B969386A02F086FF30
:100BF0002B68061CF868DA69191C1B6A00902C31F6
:100C0000F86902F0F1FE0643F6B27E61BE682B6819
:100C1000327B586900927E6A191C019602946831F1
:100C20002C33BA6903F006F97E68B54606F04CF835
:100C3000041C06F051FB2679584C012E0AD1B43021
:100C40000368002B06D105F029FE012802D0301CD4
:100C500003F0FAFD2D687F26281C291C68312C30F2
:100C600003F0B6F823684F491A69E8664A70D868F5
:100C70005A69CB788025B343022608708A70386A97
:100C800033436D4201322B435200CB708218532301
:100C900001200B7105F0F8FE23684349DB697F22D0
:100CA0004B70CB78012093431E43FA696D23354383
:100CB0000B71CD7005F0E8FE22683C4B106851685E
:100CC0004418234004D50224013B644223430133EA
:100CD00040001B182826F355491053692920C15597
:100CE0002A21CB55111C30310978D2692B26F155B8
:100CF0002C202D21C255CA5D7F218A4302258021E7
:100D000049422A43264C0A432D26F25522680133D4
:100D1000926A5B00D318391C00220120283100930D
:100D2000131C05F077FE01F085FFFFF7C7FE0028D2
:100D300030D12368586904F0EFF92368D86E04F0C5
:100D40004BF9164D2B68D868196903F063FC03F062
:100D500049FF7E69002E0DD12368B9691A1C2C3217
:100D60001B68386906F01EF82368F8681A68F96984
:100D700006F06CF8022003F095FD2B6803CB03F01E
:100D800049FCF86906F040FB2068743007F07AFAF5
:100D9000002000E0281CBD460DB0F0BD0803002077
:100DA00000000020C8030020140100200100008082
:100DB000F0B59400231C0A3385B0DB08DB006946DC
:100DC000C91A02AF8D4602AA061C7A60101C0021C7
:100DD000221C08F033FA231C0833DB08DB006946C9
:100DE000C91A8D4602AD281C221C002108F026FAE3
:100DF0000C4C301C2368996A5A6A6833009101933D
:100E0000291C7B6807F060FA301C01F079FF236829
:100E1000301C5A6A9B6A291C00937B6806F088FC88
:100E2000BD46F7BD0000002070B50C1C151C1E1C33
:100E300006F004FF144B201C1B68596A9A6A07F0DD
:100E400003F8201C07F0F2FB201C07F0DDF8321C31
:100E5000201C291C07F094F9201C291C02F02CFDF1
:100E600005F032FF041C06F037FAA6300378002B99
:100E700009D12379002B06D005F010FD012802D0FE
:100E8000012003F0E1FC70BD0000002038B508F03F
:100E9000B7F8051C012008F0C7F8041C281C03F053
:100EA000ADFA201C03F0B6FA38BD38B508F060F989
:100EB00008F0AEF8051C002008F0B6F8041C281C49
:100EC00003F09CFA002004F0D1F8201C03F0A2FAF1
:100ED00003F09CFC38BD10B5A4B08C22041C00218A
:100EE00001A808F0ABF901A8211C07F085F907F06B
:100EF000ADF901A8211C01F069FF24B010BD00006C
:100F000038B506F0E9F9294CA630236801781A793A
:100F1000002902D151B2481C04D10025DD60AA424B
:100F20000DD116E0D8681A69904202DAD86801300B
:100F3000D86001290DD0DB6893420ADB01251C49EA
:100F400000202B1C0E33021C0B7105F09DFD236845
:100F50001D7123681A79002A03D1164A1268127883
:100F600004E0012A03D1134A126852781A60186803
:100F700004F054FA2368051CF833186804F072FA78
:100F80002D1A002D0BDD2368186804F047FA23683A
:100F9000051CF833186804F065FA281A00E00120EF
:100FA00003F052FC03F072FC38BDC0460000002084
:100FB000CF030020A00C002008B505F06FFC08BD91
:100FC000F0B589B0061C05F07FFE059006F084F9A7
:100FD000031CB0331A68A14B002A08D1B83002684C
:100FE000511E8A41D2B20492002A06D001E00120AB
:100FF00004901A680021C43205E01A68C4321168EE
:10100000FE2901DC013111601B6800211A1CC0326D
:1010100011700499002904D091490968097D0029BB
:101020005AD0181CBF300178C9B2002908D0037803
:101030005BB2022B00D0012313700023037070E118
:101040001D1CBC352C78002C09D0012414701A1CEE
:10105000BD32C833017029701170196062E10498C3
:10106000002839D1191CC8310C68002C09DD013C5D
:10107000012C01D00C602FE0049B0B600323137044
:1010800050E11A1CF43212681188764A914223D03A
:101090001A1CD4321188744A126852888A421BD8AA
:1010A0006F4C2068427C181CC4300068904213DBEF
:1010B00007AA1180D6331B886C49538002234B70DA
:1010C000CB70049815230B7105F0DEFC634B22688E
:1010D0001B68927CC8331A60614C2768F87C002832
:1010E00000D01EE104995D4D002900D082E02C68FB
:1010F000231CF3331B78002B56D03B1C2C331B785E
:10110000002B51D0231C0791E8331B680393231C49
:10111000D43303981A8843009A533B1C2D33197813
:1011200004984B00F618031C994206D05A00B21AD4
:10113000023A128801338018F6E7FEF7D9FF0790CC
:10114000FA8B231CEC33904202DA1A68013200E079
:1011500000221A603A1C2E3212781B68934215DD69
:1011600042497C235B42CB7007AA1623012400204E
:101170000B714C7005F088FC2B6800201A1CE832BB
:10118000EC331060186005F0C1FCCBE03B1C2D3344
:101190001A780399231C013AE833914202DA0A1CB7
:1011A000013200E000221A60D0340137FB7F226850
:1011B0009A4217DB2E4900201223021C0B7105F006
:1011C00063FC2A682648131CCC3319680068013177
:1011D00019600230C07F814204DB00211960C032F7
:1011E000022313702A680023111CBE31D0320B7009
:1011F000136047E02B681A1CC83210602A3212783C
:10120000002A3FD0191CD431098807AA1180D6338F
:101210001B881649538002234B70CB7019230B7126
:1012200005F032FC2B682268191CD4310C88D08B55
:10123000163984421ED2181CD6300488508D844240
:1012400018D2097800291DD1D03301321968D27F14
:10125000914217DA0131196014E0C0460000002005
:101260009C0C0020FFFF0000A00C002014010020B7
:10127000CF03002001220A70191C0022D031CC3388
:101280000A601A60294D2B681A1CF2321278002A63
:1012900047D105980279002A41D01A1CBC32147833
:1012A000002C3ED1224ED86A3768798BBA8BFB8AE4
:1012B0003F8B009705F0C0FC36682B68718CB28CB0
:1012C000071CD86AF38C368D009605F0B5FC2B68A8
:1012D0001A1CD4321188D633B94202DA1A888242F3
:1012E00010DB07AA11801B881249538002234B7020
:1012F000CB70002017230B7105F0C6FB2B68012271
:10130000BD331A702B681A1CBD321278002A08D01F
:101310000499002905D0BC3301221A7002E0BD33C4
:101320001A700124201C09B0F0BDC0460000002046
:101330009C0C002014010020F0B591B002AF03F026
:1013400057F8061C03F06CF8386103F05DF8B04BF9
:10135000B8601C686846A36900211A1C0E32D208C6
:10136000D200801AE26985460E32D208D200801A75
:1013700002AD8546FD6102AD7D62F2799A18131CBB
:101380000E33DB08DB00C01A53000E33DB08DB0032
:101390008546C01A02AD8546C01ABD6102AD8546BC
:1013A00002A87861B86907F049FFA169F279281CA1
:1013B000521801215200494207F040FFA369F27917
:1013C0009449D2185200786907F038FFA269396948
:1013D000F8693D6307F0F0FE3969E269BA31FF311F
:1013E000786A4024002507F0E7FEFC603D62796AD8
:1013F000F86904F0D5FE032003F0E8FD844D86492A
:101400002B68864C5A6818684A709A680423CB7017
:1014100051230B7123688A705B6901329200087056
:101420009A18022005F030FB2B687D49DB69042502
:101430004B705A230B7123680220DA69CD7005F0D6
:1014400023FB347A013C631C2CD0F579013D6A1CE6
:10145000F8D0F37978696343EB185B001A5A714B43
:101460009A42F3D0B96930227960F9627863D2196F
:10147000694609CA09C1211C7B68F8692A1CFFF763
:101480003BF8002803D03B6A01339BB23B62F379FF
:10149000BA6963433869EB18D15CC25C8A18F96990
:1014A000CA54D3E7747A013C601C2FD0317AF379A7
:1014B0007D694B43E3185B005A5B5A4B9A42F2D06A
:1014C000BD6930207D60FD62C0197D6984467D6301
:1014D0006846624628CA28C0221C7B68786AFFF7E3
:1014E0000BF8002803D03B6A01339BB23B62F379CF
:1014F000327ABD695A432B193D699A5C2919BA3170
:10150000FF310B787D6AD3182B55CCE7404B3C6AF2
:101510001B689A69DB69D3189C4206DAFB68013BB9
:10152000DBB2FB60002B00D061E73B4C337A7F25B8
:101530002370F37980206370A370E3784042AB435B
:1015400001252B430343E3700820D223211CFA69B1
:10155000237105F099FA3249737A7F224B70CB7868
:10156000082093431D4380235B421D437A6AD323A3
:10157000CD700B7105F088FA337A251C013B0FD32F
:10158000F279013AFAD3F179FC6959438918611863
:10159000BC68E01864300C78007820180870F0E718
:1015A000737A013B08D3BC68E2187C6A7C321178FC
:1015B000E25C8A18E254F4E7F869796A04F0F0FD15
:1015C000337A7F202B70F37901216B70AB70EB784D
:1015D000802483430B4364422343EB70291C1D2367
:1015E000FA6908202B7105F04FFA0D49737A7F22B2
:1015F0004B70CB78012593431D432C431E230820B9
:101600007A6ACC700B7105F03FFABD460FB0F0BDA1
:1016100008030020FFFF0000C80300200000002096
:1016200014010020FEFF000008B502F0EDFE583066
:101630000378002B02D1FFF77FFE01E003F0BCFE30
:1016400008BD0000F0B591B002AF05F011F9041C1F
:1016500007F026FD07F052FD01F0E8FAFFF794F8D5
:1016600005F006F9061E062E00D1C6E0062813D89E
:10167000022800D17EE005D8002823D001286CD0B4
:10168000341CEDE7042800D1A5E000D9ACE005F05A
:1016900033F9FFF7C9FF99E0092800D1CBE007D85B
:1016A000072800D1B3E00828EAD105F025F9B8E011
:1016B0000B2800D197E100D2CFE00C28E0D105F053
:1016C0001BF999E105F0EAF8002812D00128D7D1DA
:1016D000CC4D02222B68D969D86AB961CA49F86130
:1016E000DA62DE61301C3F23321C0B7105F0CCF94D
:1016F00022E00125012D02D0022D0AD00FE00020AA
:1017000000F086F903F08EFAC0B205F00BFAFFF78D
:101710008BFF0020211C021C00F04CFE051C05F074
:10172000BDF80028ACD105F0A3F80028E2D0A7E767
:1017300005F09EF800280AD1FFF776FF211C012250
:10174000002000F009FF05F0A9F80128F0D02B686F
:10175000FC69DC62BC69DC6192E705F0CDF805F05C
:1017600087F80128FBD007F073FCFFF70DF804F0B1
:101770006FFF85E7FFF78AFB05F040F8002003F0D4
:1017800075FC03F03DFCFEF789FEFFF74DFF05F009
:10179000B3F805F0BBF804280CD004D800280ED00C
:1017A00001F07EF80BE0052807D0062807D103F0EA
:1017B0002DF804E004F08AFD01E003F015F805F0CF
:1017C00057F80228E5D0FFF770FB59E705F050F80D
:1017D0000328FBD054E705F08FF801F05FF805F01F
:1017E00047F80428FBD04BE705F086F803F028FD06
:1017F00005F03EF80528FBD042E705F07DF8022011
:1018000000F006F905F034F80628FBD038E705F0BB
:1018100073F8012000F0FCF805F02AF80728FBD047
:101820002EE7002003F0D2FB03F02EFC05F020F899
:101830000828F6D024E705F05FF8002002F0DCFE6F
:10184000002003F0C3FB03F01FFC05F011F809288A
:10185000F6D0012002F0D0FE12E76C4600203C6179
:1018600007F080FC07F04AFC002003F0FFFB654C0A
:10187000694623685D681868DB694543EB180733E0
:10188000DB08DB00C91A8D4602AAFA6102F0B0FD3E
:1018900002F0C6FD02F0B8FDFB695D19181C291C99
:1018A0007D6103F057FD23686C465A68DB69D318E5
:1018B0009B000A33DB08DB00E41AA54602ACBC61DE
:1018C00005F01AF84F4C2020236819681A79C15581
:1018D00021202221C255CA551A1C30321278DB69E8
:1018E00023202421C255CB5525220123D355FB6942
:1018F0000022391C00930420131C203105F08AF8C3
:101900007969F86904F04CFC002003F05FFB236860
:101910003E485C6805687C60002139603A687C68F4
:10192000A24208DA3A68A96992008958BC69A150B4
:1019300039680131F1E7A200BC69D969A4180568CA
:101940003960A44600223868824206DA296A90008B
:101950000958644621500132F5E71A682821CA5512
:1019600078689A6829242A21E055CA5530331B78B3
:101970002B24E35504242D233968DC55234B0132F5
:101980001B6892005B692C209A18C1550092391C83
:101990000022131C0220283105F03CF801233020DE
:1019A000C355184B31211B6832201A79CA55C255CC
:1019B0001A1C30321278DB693321CA553422D355D0
:1019C0003523DC55BC690022391C10203031131C32
:1019D000009405F01FF804F04BFF0A2800D171E7CE
:1019E0003C69A5464CE604F087FFFEF70DFE04F0C7
:1019F0003FFF0B28F9D043E604F03AFF0C28FBD058
:101A00003EE6C04608030020CF030020000000206F
:101A1000F0B5DF4C9DB0236800AF9B6838637B62F4
:101A20005B000133BB6503F0F1F82368FF229B687C
:101A30007866D31A984200DD7B66786E7C6A041B58
:101A40003C626C4603F0E8F87C65BC6D6846650056
:101A50002B1C0833DB08CF4CDB00C01A012363705A
:101A60007C235B423A1C8546E370211CB123002095
:101A7000643223716E4605F007F80023211CBC6D0B
:101A8000A34205DA3C6A5A001819B0520133F6E74E
:101A90000223CB70321CE4B2632300204C700B7124
:101AA0003C6404F0F1FF2B1C7C6D0833A546DB0879
:101AB000DB006846C01A8546C01A6C4685467C65C0
:101AC000F86303F00FFCB861012002F04DFF002124
:101AD0002A1CF86B07F0B2FB786D00212A1C07F076
:101AE000ADFBBC6D6846A400231C0A33DB08DB0099
:101AF000C01A8546C01AFC6178636C468546C01AD8
:101B00008546BC636C467C61BC69A400BC60002453
:101B1000BC640021FA69B86B07F090FB786BFF2179
:101B2000FA6907F08BFB0024994BFC651B68FC6D80
:101B30005B689C4251DA3C6A0026E4B2201C7C645B
:101B400003F075F803F042F802F004FF7C697D6B46
:101B50003C61BC6BB86D0136F217C30F864253412E
:101B6000DBB2FB62002B06D1796C8819C0B203F09E
:101B70005EF803F02BF86B46FB60BB686A460A33DD
:101B8000DB08DB00D01A85466A46FA6403F0B0FB36
:101B90000020031CBA69934205DAF96C9A008A584E
:101BA00001338018F6E72368984200D9206029683D
:101BB000884200D2286002F0C1FE3A69043501C2B1
:101BC0003A61FB68F86A9D460434002802D102F0AD
:101BD000C1FEBFE7FC6D0134A6E700246E4DFC6535
:101BE000BB6D9C4217DAB96B7A6BA300C858D35807
:101BF000C01A854204DD3B6A051CE318BB623C65E4
:101C0000F96D814200DAF86502F098FE7A6D6300A2
:101C1000D0520134E4E7F86D02F090FE5C4B1B6893
:101C20005B88984206DA3C6B012C03D07C6EBC6268
:101C30007C6A3C65594D32222C68396D231C8C33EB
:101C40005A6064229A60012202205A617A6B8140B4
:101C50008A58002618611E60101CDE607A60796464
:101C600002F06CFEA4347B6CB96B206058582C6871
:101C700002F064FE2B68AC3420601A1C01213C6B1E
:101C8000B6324942BA3311801E80012C22D1FA6B40
:101C9000331CBC6DA34209DA7C6D5900615A10886F
:101CA000884200D2118001330232F2E73C6D6300BA
:101CB000FC6B1A5BBC6C131CA24200D2231C35497E
:101CC0009BB23C6CBB64002002234C70CB7008714B
:101CD000FA6B19E0386B2F4C022808D1396C0423B9
:101CE0006170E3702671301C211C7A6926E0F86D62
:101CF00002F024FE3A6C80B2627002237A6DB864FE
:101D0000E3702671301C211C04F0BEFE386D68247F
:101D1000E053BC6A6A21CC537C6D43001B5BBC6CF6
:101D20006E216C20CC531B49C35304234B700223F8
:101D3000CB703A1CB2230B710020683204F0A4FE71
:101D40003C6D63007C6D1B5B144C2268111CF431EC
:101D500009680988994225D207F00AFA051C07F09C
:101D60006BF90378061C002B07D0012004F0CEFE8F
:101D700023680236F4331E6025E0002D23D1084B82
:101D80001B68DB7C002B1ED1012004F0B3FE1AE09F
:101D9000A00C002014010020FFFFFF7F00000020A6
:101DA0009C0C0020F3321278002A0CD0104D2868C9
:101DB00042889A4207D9002004F0A8FE23682A68C6
:101DC000F43302321A603C6B002C06D1BC6AE0B2DC
:101DD00002F02DFFBD461DB0F0BD04F049FD0728FF
:101DE00000D196E604F044FD062800D191E6EDE727
:101DF000A00C0020F0B585B000920391029007F08E
:101E0000B7F9061C04F060FD071C04F065FD734D76
:101E100001902B681A1CF0321278BA4220D0002FA1
:101E200008D06F4900203B23021C0B71022604F0EE
:101E30002BFE10E001993C1C00290DD168493C2380
:101E4000381C3A1C0B7104F01FFE2B68F2331E780D
:101E5000731E9E41F6B201242B68F0331F701DE003
:101E60001A1CF132127801998A4216D0002906D143
:101E7000F2331E78731E9E41F6B23A2301E03923F5
:101E8000022657490020021C0B7104F0FDFD2B684F
:101E9000019AF1331A70012400E0002404F0F0FCF0
:101EA000071C04F009FD009B032B02D0002F03D177
:101EB00007E00124002F36D0002004F0E9FC0124C3
:101EC00031E02B68F0331F88002F2CD100990129B5
:101ED00002D0022904D00EE0009804F00BFE0AE0C4
:101EE000381C04F007FE2B68F3331B78002B02D05C
:101EF000381C04F00BFE04F0F7FD2B68071CF233CE
:101F00001B7883420FD0002802D01123012601E064
:101F10001223061C32490020021C0B7104F0B4FD90
:101F20002B68F2331F7007F023F9B04239D007F065
:101F30001FF907F06DF8071C301C07F069F80090D6
:101F400007F016F9301C07F00DF907F0D7F8254B0C
:101F50001B681B7D002B10D0012C0ED0009B3A1C5F
:101F60005B325B330399029804F0DAFF002003F040
:101F70002DF80024FEF720FC06E02B680020D83363
:101F8000187003F073F80124002004F0BFFD2B68E3
:101F900000211A1CF3321170134AF4331268023212
:101FA0001A6007F0E5F807F047F80378002B08D02F
:101FB00004F0A6FD2B68F3331A78824201D0187022
:101FC000012404F091FC051C05F086F90379AB426D
:101FD00000D00571201C05B0F0BDC04600000020F7
:101FE000CF0300209C0C0020A00C0020F7B5434C30
:101FF000151C236801911A1CBD321278061C002A98
:1020000023D01A1CF2321278002A1ED11A1CD832A0
:102010001178002919D1BC331B78002B15D101236D
:10202000137002F0F1F9071C02F0E2F93A1C031CEC
:102030005B324733301C019904F072FF02F092FFCB
:10204000022002F09BFFFEF7B7FB23681A1CD83270
:102050001278002A4FD01A1C294F0020BC32107071
:102060003A680190D26A011C013A0ED30E265643FB
:10207000B446AC446646B688002EF5D036B201317F
:10208000B042F1DA301C0192EEE71A1CF2321278FB
:10209000002A13D1012911DD05F01EF90123B0300A
:1020A00003603B68DB6A013B0AD3019EB342FAD06E
:1020B0000E225A430021AA189180F4E7002904D087
:1020C00023680022E0331A6008E01A1CE032DC3397
:1020D00011681B68994201DC013111602368191CE9
:1020E0001A1CE031DC3209681268914205DDBC330C
:1020F00001221A7001E0E0331A60F7BD00000020F1
:1021000008030020F0B5A34C91B002AFFA61226839
:10211000FB60136892689D1C5200554379606946C4
:1021200039605208291C013353430831C9089A4EBB
:10213000B860C9006846401A85460133306802A974
:102140005B00CB18B9613C2200212C307B6107F089
:1021500075F82A1C0021B86907F070F88F49002033
:10216000A623021C0B7104F08FFCFEF7C9FE316838
:10217000081CD430D631FEF741FB2368884D5B68DC
:1021800004226B705B232B713368EA70291C9A69F7
:10219000022004F079FC2368291CDB6902206B70A3
:1021A0000423EB706C232B71336800251A6A04F04A
:1021B0006BFC33687B491A1CD4321288D633FA621E
:1021C0001B883A1C3B630C2001232C320B717D636E
:1021D00004F05AFC2368242019682522C155586848
:1021E0002621D0559A682720CA55191C3031097804
:1021F000DB69C1552821CB5504202923D8553368E4
:1022000001325B6992009A18391C00920220243135
:102210002A1C2B1C04F0FEFBB8687968BA697B693C
:10222000FEF796FCB861A84200D090E06A46022012
:102230003A6102F0A3FE26686846B36BB9691A01D9
:10224000131C0833C01A854602AD281C06F0F6FFA1
:10225000B26B281CF969FEF7ABFD236869465A6B1F
:102260000E235A43131C0833DB08DB00C91A8D46C2
:1022700002ACB969201C06F0E1FFFB68281C211C98
:10228000FA69FEF7D1FD386DFEF79AFE464B1B68E2
:102290001B7D002B04D1B8687968221CFFF7A6FECD
:1022A000201CF96900F020FF201CF96900F08EFD68
:1022B00006F00CFB83000733DB08DB006A46D21A0A
:1022C000954602ABFB60334B061C1D680E22686B03
:1022D0007E61031C013B5343E418F8610434F86940
:1022E0000138F8610FD30021635E002B09DD7A69A4
:1022F000FB68013A90007A611818211D042206F04B
:102300005BFF0E3CEBE72A682C21CA5568682D2339
:10231000D855AB682E21CB5530352A782F20C255A1
:1023200030210022CA551C49013309687E22896A7E
:102330005B00CB1852423120C255391C00932C311E
:10234000F2B20320FB6804F065FB39698D463A68F8
:10235000954602F0E5FC02F005FE02F0CDFA012000
:1023600002F034FE02F008FC0B4BC0221B68B86878
:102370009A567968FFF73EFD002800D1B8690B4BEB
:102380001A680B4B9A4202D002F05AFFFEE7BD4694
:102390000FB0F0BD0803002000000020CF03002094
:1023A000140100201B0100209C0C0020D40C0020F4
:1023B000CDCDCDCDF0B5494C8BB0236802AF1D68B3
:1023C000B96059687A604D430A225A6328229A6399
:1023D000DB696A46EB189B000A33DB08DB00D21A84
:1023E000954602ABF860BB6104F07CFF2368694648
:1023F0005C6BAD00E200131C0833C91A8D4602ABBA
:10240000A400FB61231C0833DB08DB00C91A8D46DE
:1024100002A93961F869002106F010FF221C002191
:10242000386906F00BFF2E4E002433686946FC33F2
:102430001C702C4B1B682D331A785200131C083368
:10244000DB08DB00C91A8D4602AB181C211C7B611E
:1024500006F0F4FE04F02CFCB969BA694D192B1C86
:102460004178201CFEF78CFABA68FB689A4201D0CA
:1024700004F042FA33689C6004F04EFB041C02F046
:10248000D1FBA04204D0201C02F0D1FB02241DE0AD
:1024900079690091FA69291C3B69B869FFF732FE36
:1024A0000F4B114A1B68041C9968914202D09A682C
:1024B00001329A60002809D104F0F0F97A6890425C
:1024C00004D104F0D5F9FB689842D5D0F869FEF73D
:1024D00002FD201CBD4609B0F0BDC0460803002027
:1024E000000000209C0C0020FFFFFF7F184BF0B580
:1024F0001B6885B01E689B68B41C5B005C4300AF22
:10250000221C5B08FB600832124BD208B86079606D
:102510001868D2006946891A8D463C2200212C3069
:1025200006F08CFE221C6846002106F087FEFA6841
:10253000731C534301336D465B006A46EB18B86861
:102540007968FEF705FBBD46C0B205B0F0BDC046D8
:102550000803002000000020F0B5CB4EE5B0336842
:1025600000AF1D68F961596805244D437A60022265
:102570005A639C63DB69B860EB1893400A33DB084D
:10258000DB006A46D21A95466946B96101F04EFFF2
:1025900004F0A8FE381C00211022403006F04EFE48
:1025A000336800223A637A635A6A1B6A6946534366
:1025B0009B000A33DB08DB00C91A8D466B467B6142
:1025C0003B1C5033BB6304F073FB061C03F00AF999
:1025D000B969AD004D193D61201CBA692B1C717899
:1025E000FEF7CEF903F05EFCA84C7869236800255D
:1025F0005969FEF711FAFA69BB689A4201D004F0F2
:102600007BF9236800249D60FC613C6204F084FA3D
:10261000061C02F007FBB04204D0301C02F007FB9E
:10262000022628E1002C72D1974B6A461B68FA609B
:102630005A6A51001A6A01324A43131C0833DB08F4
:10264000DB006946C91A8D467962081C211C06F018
:10265000F5FD3A6A8D4D082A08D103F023FC2B685A
:1026600078695969FEF7D8F93C624CE0042002F021
:10267000ADFC2B68786A59697A6904F0E9FC051E9B
:10268000012D0FD103F0AEF8052002F09FFC804928
:10269000A323201C221C0B7104F0F6F900232C1C30
:1026A0003B6230E07B4D796A2B68786933331A7866
:1026B00004F092FD2B68F96933331B785B00994273
:1026C0000ADD03F08FF805200121BA693B69FEF7A6
:1026D00057F903F0E7FBFC61FA692B680132FA61F4
:1026E0003233187802F0A3FA02F0B8FA2B683333C9
:1026F000187802F0B5F8002002F0D4F8301C02F08F
:1027000096FA02F0CFFAFB6800269D469DE0614BE9
:1027100001241B68343318785C4B1B68186002F086
:102720009FF83969B869FFF7E1FE061C052002F041
:1027300025FC002E00D088E0534D6A462C68FA60D4
:10274000A36B69461A01131C0833C91A8D467962B6
:10275000081C311C06F072FD391CA26B786A4031EE
:10276000FEF726FB2B6869465A6B0E235A43131C4F
:102770000833DB08DB00C91A8D466846311C06F0B9
:102780005DFD3A1C3B1C40323033786A69466D4629
:10279000FEF74AFBA91C684605F0EEFF684669464D
:1027A0000E30103105F0E8FF391C684638313A6ABE
:1027B00006F0B4F83862032803D0072831D1182472
:1027C00005E0381C383006F037FB041E23D004F037
:1027D0006DF8304B1B689B6B18400123A3400342EC
:1027E0001FD02C2202212D23D019D155DC5504F005
:1027F000EFF802F0B7FB012002F026F82449002090
:10280000A223021C0B7104F03FF903F04BFB0821DB
:102810000024396217E002F0A5FB012402F080FADF
:1028200011E03A6A082AF6D102F09CFB012002F07E
:102830000BF817490020A223021C0B7104F024F9A5
:1028400003F030FB0024FA689546104B124A1B68CF
:102850009968914202D09A6801329A60002E0AD19A
:1028600004F01CF87B68984205D104F001F8B968BF
:10287000884200D1CAE602F075FB02F0B3FF301CBB
:10288000BD4665B0F0BDC046080300200000002032
:10289000CF0300209C0C0020FFFFFF7F704700004B
:1028A000F0B5CC4D99B02B6800AF5C68F86418683F
:1028B000BC636043021951000831C9086600C900B1
:1028C0006C46641A91000A31BE647863A546FC62C6
:1028D0004600C908201CBC6BC9000732401AA4007E
:1028E000D2083C63D200441A85467864A01AA546F3
:1028F00085469A69BC6200216C463C6206F09EFCEB
:102900002B68786BDA690021684406F097FC2B6825
:1029100000219A69786C920006F090FC2B68786B25
:10292000DA69796C840092000819002106F086FCAF
:102930002B68A9499A69B86A920006F07FFC2B6857
:10294000BA6AA5491019DA69920006F077FCFDF71A
:102950008DFDFD6C022D05D0032D05D02F30012DEE
:1029600005D102E0303000E031300078F8633D6B93
:10297000AD08FD61BD6C6D08BD61FD6B013D3D6342
:102980007D6C2D197D6275083D61FD6AAE19FE6092
:10299000BE6A34197C613D6B8E4C013500D1AAE0D2
:1029A000002002F013FB25688C4B6C681E68013C0C
:1029B0005DD3A0002B68B860591EB964F7D3A9682D
:1029C00072694B43E31801339B009858FB6C022B50
:1029D0000AD0032B22D0012B47D1B169BA688B589A
:1029E000C01AC343DB171840B96CFB697A6C4B43C0
:1029F000E3189B009A58796C80183A6B5850002A5B
:102A000033D1B96CBB694B43E3185B00F96B3B6492
:102A1000FDF720FB3A6CFB6AD05226E0B96CFA69EC
:102A20004A43A31899007B6CC958031E8B4200D2FD
:102A30000B1C796CA21892005350B96A52589042FC
:102A400000D9101CB96CFA694A43B96AA2189200FD
:102A50005050181A7F22FD2801D84008C2B23B6AA4
:102A6000B86C1919BB6B4343CA54BB6CA4E7EE693D
:102A70005A4B741E1D68A400013E38D3EA69FB6CF2
:102A80001059022B09D0032B16D0012B2DD1296A06
:102A90000B59C01AC343DB1718407A6A7B6A125974
:102AA000396B8018185100291FD1F96BFDF7D2FA44
:102AB000FA687300D05218E07B6A1A59031E9342D9
:102AC00000D2131C796A0B5179690A59904200D9D6
:102AD000101C7A691051181A7F22FD2801D840086D
:102AE000C2B2386A796B43189A55043CC4E73C6B10
:102AF000013C3C634FE7FE6AFD6CBE64022D06D0CC
:102B0000032D61D0012D6DD100F0C4F86AE001F011
:102B10006FFC381C32491022503006F04DFB02F099
:102B200077FC21682D4B0E68F863BD691868331C6B
:102B3000013B5D43FE6484467D64FE6C013EFE64A1
:102B400022D34B687E6CFD6AF01840005E002818A6
:102B5000BE630022023A013B11D3FD6BBE6B6D00D8
:102B60003D646546AD69B6187E63760076593D6C66
:102B70005035ED5BAE1B855A75198552EAE77E6CC0
:102B8000BD69761B7E64D8E7CB693E69134AF118AC
:102B9000FE6A4900580015687118F8640022023A6C
:102BA000013B0ED3FE6CB0182E6A400080598E5A3D
:102BB000361AB446FE6B70005030C05B60448852D9
:102BC000EDE700F068F80DE03D6ABD6400F064F8E0
:102BD000012308E008030020FFFF000000000020A0
:102BE000D892000002232268502610685124F05524
:102BF00011795225E155E955111C303109785326D8
:102C0000F155D26954205521C255CA5D7F218A43AE
:102C1000134380225242381C134350305522B96C62
:102C2000D35503F07BFEBD4619B0F0BD08B503F0E7
:102C30007BFD08BD134B30B51868C26A002A1DDD44
:102C4000416BD14218D4F423FF339A4216DD0E4B68
:102C50001B6814255C5F0123A14210DB0B4C002391
:102C6000A2420CDD0C1C0123143408DB084C0023A9
:102C7000A24204DDCB0F02E0012300E00023783004
:102C8000037030BD00000020A00C0020C30900002C
:102C90009F0F0000704770477047000008B502F0B2
:102CA000AFF901F0E3FC01F07DFC01F031FC0F4BCA
:102CB0001B689A7A0E4B1B689433002A01D00222BB
:102CC00000E003220B491A6000230B700A49A0227E
:102CD0000B700A49D2050B709363D36B3F218B4372
:102CE000D36362B603F00AF808BDC046AC0C0020FE
:102CF0000C01002029000050280000502A0000503C
:102D000038B5041CFDF7C4FB051C04F0CFFA291CE0
:102D1000FC310B78002B24D0124B00221B689B6BDC
:102D2000013B07D3180120180825405F0028F7D180
:102D30000122F5E70C4B1B68D86A002811D15D6BA6
:102D4000002D0ED1FC33002A0AD05A68FE2A01DC7D
:102D500001325A605B68052B03DD00230B7000E035
:102D60005A6038BD080300200000002070B5051C23
:102D70000C1C161C03F0F4FD002802D001280AD018
:102D800023E00E204643AD19EA88FF23FE2A00D82F
:102D9000D3B2637119E00E2070432818C288FF2354
:102DA000FE2A00D8D3B263710B220A238256C3567F
:102DB0000921D31A0822415682568A1A934202DD0B
:102DC000A371E27101E0A271E37170BDF0B5C14B76
:102DD0008DB01B6804909E689F690696DE68079117
:102DE00003961E6905965E69029603F0BFFDBA4B15
:102DF00001261B68F0331B780196002B58D0002663
:102E0000079D049C0196B54B1B68DB6A9E424FDA16
:102E10002B8809A803806B88438005F0DBFC042025
:102E2000235E002B40DD238869460B84638808A855
:102E30004B8405F0CFFC68462023C35E0699994277
:102E40000BDA039A9A4208DD68462222825E0599CF
:102E5000914202DA0298904221DC04216A5E002A43
:102E60001ADD9F4A126892194032127852B2012A32
:102E700012DD0698C21B9A420EDA0399CA199A42C9
:102E80000ADD6A462223D35E0598C21B9A4203DA02
:102E90000299CA199A4205DC0023A38004E00122AA
:102EA000019201E001230193013608350E34AAE7AF
:102EB0000126049C079D0296884B029F1B68013FD8
:102EC000D86A874200DBB6E02B8809AE33806B8876
:102ED000301C738005F07EFC0420235E002B00DC98
:102EE00080E0238869460B84638808A84B8405F03A
:102EF00071FC6B46598C1A8C794B03911B68308896
:102F0000DB1978331979774B844676881B6800295A
:102F100001D14C3300E04D330420295E1B78002999
:102F200011DD039836B201B2891BCE1789197140A1
:102F3000994208DA664630B211B2091AC817091860
:102F4000414099426DDB019E002E6AD00AAE337873
:102F5000802149421943DF200140207B0123184092
:102F600040231943102399438C4602990F2319409B
:102F7000059100016146084305999843014310B249
:102F800000121840317071780590039899438C466F
:102F900001B2091209010598B270039A06916146BF
:102FA0000843F2700699A28803401943131C12B219
:102FB0007170FF2A00DDFF233A1C0498311C337125
:102FC000FFF7D4FE301C03F0DBFC0423EA5E444B25
:102FD0001B68DF197837002A01DD012300E0002398
:102FE0003B711AE004202B5E002B1ADD0AA8002397
:102FF000029A43600F231A4040210A4302700127BE
:10300000F75772883188F6783B4076B236011E4316
:1030100046708170C27003F0B3FC23882B806388F4
:103020006B80A388029EAB80E3880136EB8002961A
:103030000E34083540E7DB690F255C1E1D40284E25
:10304000621C2FD031686700CB191A1C9032002007
:10305000125E8633002A0FDC1B881AB2002A16DDA6
:1030600000210AA80A914160802129430170FF2AAA
:1030700000DDFF23037108E000215B5E002B06DC0E
:103080000AA800230A934360057003F079FC3368B3
:10309000013CDF193B1C86373A8890331A80013D8A
:1030A0000F23CBE7336801201A1CB03211680832B5
:1030B000002902D11068441EA0411C1CA6342070B7
:1030C0001268181CB430BC3301601A6003F06CFC49
:1030D0000DB0F0BDC80C0020000000200803002047
:1030E00010030020C40C002070B5124B051C1B6897
:1030F0000C1CEA331B78002B1BD00F4A1368161CDC
:10310000191CB4310968002905DDBC331B68002B8C
:1031100001D105F09BF833681A1CBC321268002AF2
:1031200007DDB4331B68002B03D1281C211C05F0DC
:1031300063F870BDC80C002010030020F0B591B0FA
:103140000E91089003F0C0FDBC4B01211B680E20BE
:103150001A1C5A321278089C91401A1C5B32127861
:103160005C33891A1A7800258B1ADBB20F93B44BA3
:1031700009951B680A950C93C0330D93B14B1B68DE
:10318000DA6A5043111C23180E3B01390BD3DC883B
:10319000099EA64200DA09940427DC5F0A9DA54235
:1031A000F2DA0A94F0E7089E013A301808380792DC
:1031B0000590079F013700D1B7E0059F023F00202F
:1031C0003B5E0697002B00D1A8E09C4E059C33681F
:1031D00020881A1C4E321969157824333A3A03F0C4
:1031E0003CFD041CFDF754F9FC300378002B05D09E
:1031F000336835331B789C4200DA1C1C33681A1C78
:103200004F321278002A01D1642245E02A1C0C9D1D
:103210007535FF35287800281CD1069F64210026CB
:10322000BE5F171C714367438C460C996D31FF31AB
:10323000BC450DDDA6420BDC834F0E683F680136AE
:103240000E60DA373F78BE4204D101262E7000E0CE
:10325000002008600C987530FF300178002915D0E7
:10326000069E0C990025755F6D31FF31A5420BDD7F
:103270000D681E1C01350D603E363678B54205D10D
:10328000002505700D6001E0002008600C99753183
:10329000FF3109780029B7D06949079F0968069D61
:1032A000C819403006780020285E002E05D01D1C6D
:1032B0003E352D7876B2AE421ADC64254543544340
:1032C000A5420FDB1A1C44321278099F059E7A43EF
:1032D00034889211944205DB9B6C0A9C63439B11DA
:1032E00098421BDA059D069E00232B8033800CE05C
:1032F00034331B78554D5C436843624390420DDA8A
:10330000059F069C00233B802380079A143292007D
:103310008A18B03153600B68013B0B60079D059E16
:10332000013D0E3E0795059643E7454B00221B687D
:103330000E9DB0331A60434B1B68DB6A5C1E05941C
:10334000059EE2000E247443AF18089D0C227243C0
:103350002C193F330C9D0D9E5B00EB18B218C23345
:1033600007920993059E364D013600D1FEE10426F1
:10337000A35F324A002B00D1B9E1059E2D68126887
:10338000A9190B1C403318783E320130C0B21870B6
:10339000127840B2961DB04201DD04321A7040230B
:1033A000CB56012B03D123883B8063887B80059E0D
:1033B000AB1940269E57012E00DC80E1B01C032192
:1033C000FCF7ECFE0A91022E42D11E4B00203A5E21
:1033D0001E6802217B5E69692D6930686D10551B7E
:1033E00076688C46E917013E6D1836024D40761B13
:1033F0007F2E0ADD65466910591ACE1701388919E2
:1034000000027140401A7F280DDC0021605E801AA6
:103410000222A15EC91A04F0DFFB0B2803D93B8806
:1034200023807B8863800323013B19D32188079D78
:103430005A00A9526188AA18D180F5E7C40C00206F
:103440001003002008030020C80C002010270000F3
:103450000A9E079D3A887300EB181A807A88DA80F2
:10346000D34B059E1B680221655E9B1940331B7878
:103470000020265E5BB20893032B00DC15E10A9A5C
:1034800007985300C3181988101C0D9104300321AC
:103490000693FCF783FE079A4B00D3181888DB8845
:1034A000069A0E93089B8446D188042B08D10022EB
:1034B000B85E301AC317C01858400226BB5F09E037
:1034C000099B0020185E301AC61780197040099EAB
:1034D0001423F35EED1AEA17AD18554023884019FE
:1034E000099D059E2B806388B24AAB820C9DAB1967
:1034F0003933FF331D78002D06D0156862352D88CD
:10350000A84208DC002505E0156864352D88A8422E
:1035100001DB01251D701B78002B2BD11268802147
:10352000131C603212885E331B8800924A0003F03D
:1035300083FB069D061C0020215E0020285E0B1ADE
:10354000DD175A19069B6A4094460222A55E0622A0
:103550009A5EAD1AEA17AD1855406544321C2B1C13
:1035600005F0BCF9069B20800222A15E0620185EB1
:10357000321C78E00D9E6046B5B22B1A1BB2DA0FF2
:10358000D3180E9A89B25B100D938B1A1BB2DE0F03
:10359000F3180020265E5B1008960220265E0E932C
:1035A0000B960D9EAB19089D1BB2EB1ADE170E9DF4
:1035B0009B19734049190B9E09B2711AC817091853
:1035C00041405B180025802B01DD1D1C803D0A98C1
:1035D00003210530FCF7E2FD079E764B49001B688E
:1035E0007118039106991A1C0020085E5B320F992E
:1035F000167801321278414303980A920022825EC3
:103600000898724389180A9A424388181A1C5A3239
:1036100012780699104104900620095E0F985D33D8
:103620004843844603981B780621415E0B984E431D
:103630000A996644414376180E991641594311413F
:1036400076180D994B4313411A1C049B089998183E
:103650008022D2002B1C05F041F980222080D2006C
:103660000220215E301C2B1C05F038F9514D608082
:103670002B680421785E0422A15E04333E269A5F03
:10368000431ADE179B19734005F028F92B68A080B8
:10369000F888E18804333E255A5F431ADE179B19E8
:1036A000734005F01BF9E08009E000203B5EF6184E
:1036B0007610268002217B5EED186D1065803C4BF4
:1036C0003C491A68059D0968531940203E31185637
:1036D0000978884203DC01225242A28003E0B03222
:1036E000116801311160483300229A7032E02E686F
:1036F0000599126870180692021C403200269657EF
:10370000B446069E3E363678B4451CDD0426B95FC5
:1037100000291FD0483086780136F6B286700699A7
:1037200076B23F3109788E4213DC3B8823807B8858
:103730006380BB88A380FB88E3802B68B0331A6862
:1037400001321A6006E00C9D059E1370AA193932E9
:10375000FF321370059D079E013D0595099D0C3EA6
:10376000023D083F0E3C07960995FBE52B680022B9
:10377000B8331A60104B1B68DC69013C611C00D136
:1037800097E0286862008218161C863637880597ED
:103790000599084F002918D09023995E8C46059909
:1037A0000BB26146002909DC39683C3108E0C046AB
:1037B00010030020C40C00200803002039683D31AC
:1037C00009788B4201DA002333803188031907938B
:1037D00000293FD098330593987884467F2804D0F9
:1037E00001239C44059863468370079B98339B781C
:1037F0005BB2022B13DD90320023D05E3A6809B22F
:1038000094460422944463463E229B5E0593431AE9
:10381000DA179B185340059A05F060F830802B6842
:1038200002201A19111C983108563968403109785C
:10383000884207DC211C403149005B1801214942C4
:10384000D98003E0B8331968013119609832002338
:10385000D37192E73F68079B069798330227DF579B
:1038600005974027BC46069FBC4467463F78BC4648
:10387000059F674518DD90321288002A00D17CE749
:10388000DF79BC460127BC446746FFB2DF717FB2D7
:10389000BC46069F41373F78BC4508DC3280B830D3
:1038A00003680133036068E7286803199833997047
:1038B00063E711B0F0BDC04638B5051C0C1C02F022
:1038C000EDFF012803D0281C211CFFF737FC38BD71
:1038D000F0B58FB0059007910A920B930024404BEE
:1038E0001B689B6B9C4278DA059F2301FB1808201C
:1038F0001B5E002B6FD0079FA300FB180327DF5729
:1039000008979B78013F5BB206930497089F049841
:1039100001370997B8425EDC069E013E069B0133E3
:103920009E4255DC2E4B04991B6801315A690A9F4F
:103930005143481C80193D5C013D47D39B6B9D4220
:1039400044DAAC4242D0079FA300DB5F254F400022
:103950003F683F89BC46149FC05B834236DC069FAC
:103960006046C91943430131149F4900C95B9B114B
:103970008B422BDA099F7A43B2180132149F52000E
:10398000D25B934222DAA54202DB2B1C251C1C1CB5
:10399000059821010DAF41180A31381C042205F0A9
:1039A0000BFC059A29015118381C0A3103F04CFD13
:1039B00000970A9F231C01970B9F05980297149F5D
:1039C000079903972A1C03F05DFD2C1C0236A5E71E
:1039D000049F023799E7013481E70FB0F0BDC0467C
:1039E00008030020C40C0020F0B585B00C1C151C89
:1039F00001930390FCF73AFDFCF744FD00F0F8FC5E
:103A0000384E394933680220DB692A1C4B70042385
:103A1000CB705A230B7103F037F8231C2A33002292
:103A20001A7080231B066363304BA3633368DA6923
:103A30002F4B19682F4B1B6802932F4B1868844635
:103A4000013A43D3019F9600BF59A859C31B676B26
:103A50009F4200DA6363A76B9F4200DDA3630B788C
:103A6000002B06D0029FBB18BA33FF331B78584394
:103A700080110A9FBB591B0C1B1A11D4487B83422F
:103A800002DB01206646307110200856834212DBAB
:103A90002768181A381820606069013060610AE0F0
:103AA00012200856834206DCA668181A3018A06057
:103AB000A0690130A061039F50003B52201C2A30B6
:103AC0000678B34200DA331C0370B9E7084B2A3496
:103AD0001B6822781B7A00209A424041C0B205B090
:103AE000F0BDC0460803002014010020FFFFFF7F47
:103AF000B80C0020BC0C00200C030020F0B595B0E1
:103B00000C931391141C1290FCF7B0FCFCF7BAFC58
:103B1000A64B1B68FC331B78002B06D1A44B1B68FB
:103B20001D7A0B950A27DE5F05E0A24B1B689D7886
:103B30000B950427DE5FA04DA0492B680C9F1A68E7
:103B40000A960A709A685E688A70013204239200AD
:103B5000CB70BA18512302204E700B7102F094FF03
:103B60000023A21DD3770232D3777F26621DD6773A
:103B70002868E21DD67742680168013AD2B20E92F7
:103B80008B4A013915688E4A49B212688D4F0F92DF
:103B90008D4A4E001268AC4610928022120606969C
:103BA0000997089207930593002900DAC2E00E9B5B
:103BB0005AB2002A00DAB8E085684E1C6E4301361E
:103BC000B618B30001960C9E1A9F9D599300FB589E
:103BD000089EEB1A9E4200DA0893099F9F4200DD7F
:103BE000099363461F784368002F09D01F1C4F4379
:103BF0000F9EB618F65D109F7543BF687D432D1369
:103C00004B43D3189F001B9BFF58019B3F0C5E004A
:103C1000139B9E1903236B4304930025735F049D3C
:103C2000FB1AEB189B001B11FB1A9DB2571835802D
:103C3000049756100296049E01273740069EF719F6
:103C4000466901377743029EF6190136129F7600C6
:103C5000F5536646002B54DB10257557AB4212DB3B
:103C600027685D1B7D192560656911270135656130
:103C7000F757367C656876B2BB4201DC9E1B00E0DC
:103C8000BE1BAE196660E568AB4204DDD6B2CFB2AA
:103C900011960D97E3606646357BAB421BDB251C16
:103CA00008351F26AE57964200DAEA77E51D1F2633
:103CB000AE57964200DDEA77A51D1F26AE578E420D
:103CC00000DAE977651D1F26AE578E4200DDE977E1
:103CD000079F013707979DB21D9F56000295BD5B58
:103CE000029F7D192F1C1D9DAF531C9D069EAF5B2F
:103CF000029EF5191C9F069EBD53059FFF18059750
:103D000011E012257557AB4206DCA7685D1B7D19D3
:103D1000A560A5690135A5612569AB4200DA23617B
:103D2000059EF61A0596013A43E7069F0139023FC0
:103D3000069739E7204B05981B6801259969FCF720
:103D4000D7F922497C235B42221CCB70E0617623A9
:103D50001C32281C0B714D7002F096FE079EA21DAE
:103D600026621F21631D51561F229A56164B1B684F
:103D7000914201DB1D7101E000221A71089F099D2B
:103D8000E762231C119E0D9F283325631E705F7010
:103D9000E1680B9D0120A94205DA23690A9ED80F2C
:103DA000F2179E425041C0B215B0F0BD0000002095
:103DB000B80C0020C00C002008030020C80300201D
:103DC000BC0C0020FFFFFF7F0C030020140100202B
:103DD00030B5164D2A302A680378D47C85B05C4310
:103DE0000B68A4099C4200DA1C1C937BD27B201C2C
:103DF00000920A21282202F01FFFC0B244432B6820
:103E0000A41103941B7B9C4200DA0393084901230D
:103E10004B707C235B42CB7006201F2303AA0B71DF
:103E200002F032FE039805B030BDC046B80C002049
:103E300014010020F0B591B0089316AB1B78BD4C6F
:103E40000F9300234B73CB730D907F2320680B736C
:103E50008B7306910A920323C3562027FF1A02236D
:103E6000C35608997F00FF1A49687F10FFB2059179
:103E700007970422815E0623C25E0823C356407A58
:103E800040B20090059802F0D7FEAB4B80021D684F
:103E90002968FCF72DF924686A682378002B00D183
:103EA0006EE0189D911CEB8849006B802B892E1CBD
:103EB0002B800B1FEB181D887552991E0988D9801D
:103EC0006178002903D0079D6FB27F0039E0023B83
:103ED000013A39D35E88DD88032161567519079E42
:103EE0004D431F8871B21E89BE194E430221AD1980
:103EF00061569E88714369188911414309141981DB
:103F0000E5E7032565575988DE886D00AC460D1C32
:103F1000B14200D2351CADB266466E431D89B4462F
:103F20001E88311CAE4200D2291C0225655789B279
:103F30009E887943754361444D19AD1145432D1455
:103F40001D81023B013ADCD2089F0B207F68049759
:103F500020560422A15E0623E25E0A23E356009067
:103F6000381C02F069FE744B80021C686168FCF723
:103F7000BFF8704B21681B681A78002A0CD164E0E6
:103F8000531C189F5B00FB18013ADDD31988023BD4
:103F900041430914D980F7E7179CE288251C628009
:103FA0002289261C22808C1C6400221FAA181588D6
:103FB0003553941E2488D4805C78002C03D0079C51
:103FC00067B27F0039E0023A013939D35688D58883
:103FD00003241C577519079E6543178874B2168908
:103FE000BE1966430224AD191C57968874432C19D8
:103FF000A411444324141481E5E703255D57548834
:10400000D6886D00AC46251CB44200D2351CADB23A
:1040100064466C4316881589A446341CAE4200D20F
:104020002C1C02255D57A4B296887C4375436444DA
:104030006519AD1145432D141581023A0139DCD2C1
:104040001A7B9446002A23D00BE04A1C179D52008D
:10405000AA180139F4D31488023A44432414D480B2
:10406000F7E7089E0E27D95F7068002294468842C1
:104070000EDD10241A5F9B7C01255BB20093634622
:1040800002F0DAFD10231B1A9B000C900E93AC4635
:10409000294B00261868089601684B1E5B000793A1
:1040A0004F1E099700D298E04368013B00D28FE091
:1040B00067468468002F41D00A1C6243D6180A9FC5
:1040C00001367600BD5B0B922AB2D243D2172A404A
:1040D000099D5F1C0235654302967D190A9E6D009D
:1040E000AE5F12B20396964200DA03920B9E341B27
:1040F0003C190A9F6400E45F944200DA141C039E9A
:104100000A9F3519029C3E190224375F141EBC42D7
:1041100000DA3C1C023E2D190027F45F161EA64251
:1041200000DA261CAD190C9C0E9E65437243AA183A
:10413000921109E0CC0C0020080300204C431C190C
:1041400001340A9F6400E25F189D5C002C192489E9
:10415000179E079F121BF41924895D10121B099CDE
:104160001E192A4C344004D50226013C76423443C1
:104170000134079E0F9F3419BA4218DD069F0F269F
:10418000BE57AE4200DAFD73069F0E26BE57AE4202
:1041900000DDBD73069F0D26BE57A64200DA7C7374
:1041A000069F0C26BE57A64203DD3C7301E0002AA1
:1041B00004DD089E964202DA089200E00022476978
:1041C00001347C432C1901340D9DA40062516CE72D
:1041D000079E0999023E079662E70899069C426984
:1041E00021600B490D9F8A707C230132C5680669E6
:1041F0005B429200CB70BA18832305200D704E707D
:104200000B7102F041FC11B0F0BDC046010000800E
:10421000C8030020F0B5A9B00FAD059000216422BD
:10422000281C05F00BF806A80021242205F006F84A
:1042300000246300E858019328236343304F029021
:104240003A1C3232D2180492002605980499835FF2
:10425000885FFA2158438900FBF74AFF029A023629
:104260001018502E01D00290EFE73B5F019AC01862
:104270000234A850322CDCD10023E958002901DA9D
:104280000022EA500433642BF7D100246700182081
:104290006946C0194058192161431A4B01901A1CF4
:1042A00014328A180292002602987200835FA8587E
:1042B000FA2189005843FBF71BFF019902360818C1
:1042C000322E01D00190EFE70E4B18370233E35E38
:1042D0000234C0186B46F850122CD7D1012252423A
:1042E0000023990006A841588A4202DADAB2039202
:1042F0000A1C0133092BF4D1039829B0F0BDC04644
:10430000E8920000E89A0000F0B585B00192021C26
:104310005232041C0D1C861C0292B31E0422A85E9D
:1043200003930022AB5E184FC01A01997843FBF744
:10433000DFFE039B019918800222AB5E0622A85E75
:104340000435C01A7843FBF7D3FE029B3080043655
:104350009E42E2D100230D4AE15A56329A5A8A1AF5
:10436000E2520233502BF6D10025635FFA20800021
:104370005843074B2633E95EFBF7BAFE605302351C
:10438000502DF2D105B0F0BDA0860100689C000060
:10439000E89C000030B500220C7D131C8D5CA5420A
:1043A00001D00133DBB20132142AF7D1022B14D829
:1043B000012303700B7D0621181C884301280CD1B2
:1043C000032B0CD003D8101C012B09D005E01620BC
:1043D000052B05D01720072B02D0002000E0152068
:1043E00030BD0000014B18607047C046AC0C002087
:1043F000014B18687047C046AC0C0020014B186098
:104400007047C046A80C0020014B18687047C04692
:10441000A80C0020014B18607047C046A40C002077
:10442000014B18687047C046A40C0020014B186867
:104430007047C0460C0100208D23013B002B01D0AA
:10444000C046FAE7044B10221B78DBB21807C00FF6
:10445000134018437047C0462B0000500F4BF7B570
:1044600018261E700E4BA0271E70FFF7E5FFFF05F4
:104470000B4B01AC00252C3760701D703E70FFF7B0
:10448000DBFF064B20703D701D7023786278181C8E
:104490005040400013400343D8B2FEBD2A000050F4
:1044A0002D00005010B50D4B00201B78AA2B12D107
:1044B0000B4B1C780B4B64B218780B4B40B219783D
:1044C0000A4B20181A780A4B49B21B7840188018FA
:1044D000C01A43425841C0B210BDC046500002004D
:1044E000510002005200020053000200540002007A
:1044F000550002008023DB020022188059809A8038
:10450000C046024B188880B27047C04606000400BF
:10451000154BC0229200985814490140995099585F
:10452000FF20814340200143995098581049014091
:104530008020000401439950985880210002000A0D
:1045400009060143995002221A6001221A600821CB
:1045500004221A601960FC3300215960054B196967
:104560000A431A617047C04600E100E0FF00FFFF08
:10457000FFFF00FF00ED00E013B5094A04241378A3
:104580000021DBB21C4301910198F421FF318842E4
:1045900005DC1370C046147001990131F3E713BDB7
:1045A0000D00005013B500220192A022D205D06B5D
:1045B000C021C9000143D16301AB187803218843AE
:1045C000012108430C24A043042420433024A043A9
:1045D000102420433F242040402420431870987822
:1045E0000F24A043072420439870D8780143D97042
:1045F000019B936113BD00000122A023DB05104045
:104600000206034998690840104398617047C04604
:10461000FFFFFFFE82B00022019201301F2201AB9A
:104620001040C9B21870481C023110400A40920074
:104630005870DA70019AA023DB05DA61196A024A20
:104640000A401A6202B07047FFCFFFFF0002064B1C
:10465000000A0138002258609A6005221A60C0469C
:104660001A68D103FCD5704710E000E0F0B5534F55
:1046700085B03B681A1C543215780232596D127895
:1046800057331E780F231407994312092D070192FF
:104690002D0F0B1C80222B4352001343484A0395D5
:1046A000484D1340484A2B4048491340240F0B40C3
:1046B0000199220413430A0545493607360F0B407A
:1046C000009613433206434E029433401343424A4A
:1046D000A024E4051340E360FFF74EFF3B68E26867
:1046E00055331B781540DB069B0FDB021D43E5604D
:1046F000E26880239B001343E360E26880239B0110
:104700001343E360029C039DFFF7CCFE002813D007
:10471000324F882039781E34C9B2FBF7E9FC39786A
:104720004443C9B28820FBF7E3FC0F3545431E3CE8
:1047300000230F3D9C4203DB231E0F2B00DD0F23C4
:104740000F22954200DD151CA024E4051F491A40E4
:10475000E36812040B401343E360EB43E268DB17AA
:104760001D400F239A431D401543E560E368F02286
:10477000934380221343E360E368154A18481340CB
:10478000E360E3683340E360FFF760FFE2688023A3
:104790005B051343E3600099E2680B0616401E4375
:1047A000E6601048FFF752FF019B09491A05E368CC
:1047B0000B401343E36005B0F0BDC046A80C0020D9
:1047C000FFF9FFFFFFE7FFFFFFDFFFFFFFFFF0FF46
:1047D000FFFF0FFFFFFFFFF0FFFFFFEF540002009E
:1047E000FF0F0000FF6F0000064A074B1268012010
:1047F0009432126819789040021C0A43D2B21A709F
:104800007047C0460C010020290000500549064BA6
:1048100009681A78943109680120884082431A7027
:104820007047C0460C01002029000050044B187846
:10483000044B1B6894331B681841012318407047D0
:10484000290000500C010020044B82B0019001AA05
:10485000188092789A7002B07047C04624000050C9
:1048600007B500F0DBFD064B019001AA1880927895
:104870009A70044B00221A70034B0122DA7707BDAD
:1048800024000050900C002008000050034B002230
:104890001A70034B0122DA777047C046900C002053
:1048A0000800005072B6084B1B5C002B03D1C046B9
:1048B00062B630BFF6E762B6A023DB059968034A0B
:1048C0000A409A607047C046900C0020FFFFF9FF35
:1048D00072B6074B1B5C002B02D1C04662B6F7E7ED
:1048E00062B6A023DB059968024A0A409A607047C5
:1048F000900C0020FFFFF9FFA023DB055A6801217F
:10490000120E58689143034A090602400A435A604E
:104910007047C046FFFFFFFE08B5074B1B681A1C17
:104920005C3212785D331B7852000132504399405B
:10493000FBF7DEFB08BDC046A80C002008B5044B01
:104940001B685F33197849000131FFF7E5FF08BDA7
:10495000A80C002008B5A0230120DB055870FFF744
:10496000A1FFFFF7C9FF08BDF7B5A026041CF60597
:10497000042804D1524B1B681F6F5B6F21E0514B21
:104980001B689F6CDB6C7361FBF782FDF33003786F
:10499000002B17D004F0ECFB04F04EFB01797F22D2
:1049A00011408904019171690B1C47490B40019921
:1049B000194371614179444B0A40716992040B407B
:1049C00013437361A023DB051F611E691F231E4073
:1049D000FFF768FD00280AD03C4B88201978043680
:1049E000C9B2FBF785FB46430023043E03D4331EC4
:1049F0001F2B00DD1F23A022D20510691F210B40B1
:104A0000884303431361022C16D007DC002C13D01B
:104A1000012C2DD12B4B1D685E3529E0042C07D0CD
:104A200023DB052C24D1264B00241D687B351FE099
:104A3000234B1D6878351BE0FBF72AFD031CD83398
:104A40001B78002B03D01E4B1D68473510E0F33058
:104A50000378002B05D004F08BFB04F0EDFA851DE4
:104A600006E0184B1D685B3502E0164B1D6861358A
:104A7000A023DB05596928783F2210409143014368
:104A8000596168781F215D6908401149C0022940B9
:104A9000014359610F49640009680C19211C533105
:104AA0000878596810409143014359605434217883
:104AB00058680A401102084A02400A435A60F7BD8A
:104AC000AC0C0020A80C0020FFFF03FE54000200E5
:104AD000FF07FFFF0C010020FFC0FFFF214BF7B5D0
:104AE0001A68214B1B685E331B785B069B0E019393
:104AF000517E00238D005519581E5B18002B25D0C0
:104B000053181B189B7E8024D3185E78A023DB05E6
:104B10005F68E4033C435C60019CB6062404009497
:104B20005F68B60EBC46114F64462740009C274381
:104B30005F60C04624367600F65A84002C196667FA
:104B40005E680B4C34405C60031CD5E7537E09491A
:104B500074324B700423CB700F20B0230B7101F023
:104B600093FFF7BD0C010020A80C0020FFFFC0FF41
:104B7000FFFFBFFF14010020F7B5FFF7AFFF114B98
:104B800000241D686E7E731C9B005B420093B30083
:104B9000EB180193009B043C9C4207D0019B012130
:104BA0001F19786FFFF7B8FE7867F3E706492A1CEC
:104BB0000423CB707432B0230F204E700B7101F0C0
:104BC00063FFF7BD0C01002014010020044B0022FC
:104BD0005A70A023DB055A7001221A707047C04634
:104BE000900C0020A023DB059968064A0A4080212A
:104BF00089020A439A60044A0021917001229A7046
:104C00007047C046FFFFF9FF900C0020014B1B6866
:104C1000D86E70470C010020014B1B68D8667047A6
:104C20000C010020A023DB059868C0B2704730B5A6
:104C3000A023DB059B68DBB283420ED001DA01338F
:104C400000E0013BA022D2059568FF211C1C8D438A
:104C50000C40291C21439160EEE730BDA023DB0509
:104C60009968802252020A439A609968094A0A4068
:104C70009A609A68120112099A60D968064A0A4035
:104C8000DA60D968054A0A40DA60D968044A0A40FD
:104C9000DA607047FFFFFFF0FFFEFFFFFFDFFFFF5F
:104CA000FFFFFFEF1B4B10B51A680121131C523395
:104CB0001878A023DB059C680840174900042140B0
:104CC00001439960533210789C6814490007000929
:104CD00021400143996011789A6809091201090776
:104CE00012090A439A60D968802252000A43DA60A6
:104CF000D968802292010A43DA60D968802252057D
:104D00000A43FA20DA60800000F0ACFBFFF79EFC5B
:104D100010BDC046A80C0020FFFFFEFFFFFFFFF004
:104D200008B50020FFF7BEFD08BD0000034B1B685F
:104D30005C331878400001307047C046A80C002052
:104D4000024B1B685D3318787047C046A80C0020E2
:104D50000048704700100050004870470020005085
:104D60000048704700400050064B1B68D879064B3E
:104D700002301B6842331B785843044B8000C01834
:104D80007047C046AC0C00200C01002004400050CD
:104D9000F7B5194B051C1C68237A5E1E10D3E27907
:104DA000013A0BD3E179501C0231594341181348A1
:104DB000890009180868E8400860F1E7331CECE74F
:104DC000FFF7D2FF237B002201339C466346013B61
:104DD0009C460FD3E17A9600019186190023019930
:104DE000994205D09F00F1590133E940F151F6E7AE
:104DF0005218EBE7F7BDC046AC0C00200040005055
:104E0000064B1B68D879064B02301B684E331B7863
:104E10005843044B8000C0187047C046AC0C0020BB
:104E20000C01002004400050074B1B685A7AD879C7
:104E3000064B02301B68013246331B785843044B43
:104E400010188000C0187047AC0C00200C01002026
:104E50000040005070B53F4B1D682A7853B2042BB8
:104E600018D13D4B19680B1C7A331E7802235D1E46
:104E70006FD3CA79013A0BD3C879541C0230584316
:104E80002018364C800000190468F4400460F1E7F3
:104E90002B1CECE7002A45D0022B21D1FBF7F8FAB6
:104EA000D83003782C4C002B02D02368493302E021
:104EB0002B4B1B685D331878FFF76AFF25686C7A07
:104EC000002C2FD0FFF7B0FF061C013C2AD3E97A53
:104ED000201CFBF763F989008A59A300F250F4E71C
:104EE000032B03D11E4B1B68633318E0012B11D138
:104EF000FFF786FF184B061C1B68DC79013C11D3B9
:104F00002B1922331B789B009859FFF717FDA3003C
:104F1000F050F3E7052B05D10F4B1B687D33187854
:104F2000FFF736FF0E4B1B685A331B78002B10D04F
:104F3000094B1A68D379013B0BD3D079147A02302C
:104F40006043591C091805488900091800200860A9
:104F5000F1E770BD0C010020AC0C002000400050B7
:104F6000A80C002008B5A0230120DB055870FFF72E
:104F700099FCFFF7C1FCFFF76DFF08BD70B5041C7D
:104F8000104E114D11D10120FFF7EEFC33680122C4
:104F90001A70A023DB056C705C701A70FFF7E2FFDB
:104FA000FFF7AAFCFFF7E8FD0224201CFFF7DCFC5A
:104FB000336800221C70A023DB056A705A7001223E
:104FC0001A7070BD0C010020900C002008B5FFF78E
:104FD000D5FFFFF7C7FF08BD10B5A023DB051C6A8E
:104FE0000005064A000D010422400A431A621A6AAB
:104FF000120B12031043186210BDC046FFFF00F0F1
:1050000073B5164BA0221B68D2059168196D5033F9
:1050100091601C78FFF746FA114D002810D0114B13
:10502000114A1B7812782E6852B25BB20092201C93
:105030001021D12201F000FE2B6830671B6FE418AD
:10504000002C01DA002402E0FF2C00DDFF242B6895
:10505000E0B2DC66FFF7EBFD73BDC046A80C002094
:105060000C010020530002005200020008B5002885
:1050700001D0012801D100F041FEFFF7C1FFFFF789
:10508000F5FAFFF78FFA08BD70B51F4B0D211B68AD
:10509000A0B05A7B00230C3AD2B291425B4103216B
:1050A000C91AA023DB0558693F2210405C688022A2
:1050B000D20322435A60421EA023D2B2DB05FF2A4C
:1050C00011D05E683F25114C15402D0434402C430F
:1050D0005C60C0460C1C243464001C5B6D465300AD
:1050E000EC52013AE8E75968094A0A4009495A600E
:1050F00002234870CB700320B3236A460B7101F082
:10510000C3FC20B070BDC046AC0C0020FFFFC0FF48
:10511000FFFFBFFF14010020F7B5041C02F0C6F822
:10512000124B1A6800231069411C0191019DD66839
:105130009D420CDB576901367E4399008C469E19CF
:1051400000216546B600615101333151EEE701237C
:105150009E420ADB556900215D43AF002D180135E1
:10516000AD00395101332951F2E7F7BD08030020A2
:10517000044B054900221A6059609A6005221A60A2
:105180007047C04610E000E0FFFFFF0010B5A0230D
:10519000DB059C6899680B4BC9B21B68E4031B6F65
:1051A000E40F591AFF31E62359430134064BA0405E
:1051B000C918041C0548FAF79BFFC1B2201CFAF776
:1051C00097FF10BD0C0100205C5D000040420F0005
:1051D000014B00221A60704710E000E013B50B4C41
:1051E0000B48A368C01A0193FFF7D0FF09490123B8
:1051F0004B7004230190CB7000206F2301AA0B7128
:1052000001F042FC00230198236016BD10E000E08D
:10521000FFFFFF001401002010B5041CFFF7A8FFDA
:10522000201CFFF7ABFEA023DB0501205870FFF721
:105230004FFBFFF761FBFFF70DFEFFF7CFFF10BD40
:10524000F7B5234800F00EF9FFF700FA214F0025CB
:10525000214E224CB7421FD28036F31B2026832BCF
:1052600000DC9E100123667000203A1C211CB61041
:10527000E370207101F008FC3B1C321C013A08D39A
:10528000002D04D116491868884200D01D1C043333
:10529000F4E7B600BF19DBE70E4904226B1A0127B9
:1052A0000193E270A723211C01AA002067702371DB
:1052B000843601F0E9FB0423751BE3700020A8236A
:1052C000211C01AA01956770237101F0DDFBF7BD78
:1052D000801A0600D40C0020801B0020140100203E
:1052E000CDCDCDCD014B1B68587E70470C01002001
:1052F00070B5051CFFF784FD094B1C68637E9A009E
:10530000AD180022511ED218002A08D0E2185218F7
:10531000927E920016588A00AE500A1CF2E770BDC9
:105320000C01002030B50A4B1B685A7E94001C19F2
:105330005300C01800230133D11A013106D09D005B
:10534000651B59006D6F49424552F4E730BDC046B8
:105350000C010020F8B50C1C051CFFF761F814497E
:105360000868037A013B11D30E68F279013AF9D348
:105370000E68F0790F4E584336688018F6182818D2
:10538000603607783679BE190670EFE70B685B7AEE
:10539000013B08D3074AE15C1268D21878321279CF
:1053A0008A18E254F4E7281C211C00F0F9FEF8BD2D
:1053B000AC0C0020A80C0020134BF7B51C68694604
:1053C000A26900AF131C0E33DB08DB00C91AE369C6
:1053D0008D460E33DB08DB00C91A0C4B6D461E6888
:1053E0008D467960281C311C03F0E6FEBA23FF339A
:1053F000F118E269786803F0DFFE281C7968FFF78E
:10540000A9FFBD46F7BDC04608030020A40C00203C
:10541000A023DB0518690006400F704738B5A023AC
:10542000DB0599689D680C4B041C1B680B481B6FBF
:10543000ED03C91AC943E623C9B25943084BED0F1E
:10544000C918FAF755FE054B01355843211C284170
:10545000FAF74EFE38BDC0460C01002040420F0056
:105460005C5D000038B5A023DB0599689C680A4B99
:10547000051C1B6809481B6FE403C91AC943E623CE
:10548000C9B25943064BE40FC918FAF731FE684315
:105490000134204138BDC0460C01002040420F00BD
:1054A0005C5D000008B5002807D0481006380123CD
:1054B000132900DC0023C01806E00B2900DD0E399B
:1054C000081C0321FAF714FE08BD0000F0B5C04B1C
:1054D000A9B01B68002502935B7B071C0C3B281CB2
:1054E000DBB20D229A426841BA4B03261B68361A7A
:1054F00003963E68019347331E70019BC4B27868DF
:105500004A3304940DAC291C18706C22201C03F043
:1055100095FEB14B0B951A680C95231C62CA62C3A9
:1055200023CA23C343CA43C3012124234B43221C60
:10553000E31861CA61C361CA61C361CA61C3039DE3
:105540000131A942F1DB00260396341C029DEB7960
:105550009C424CDA029D04982B195D7B0BAE291CF2
:10556000FFF7A0FF365C2422311C5143B446661C71
:1055700006960B180DAEF6180596059B069E1E7135
:105580001F2D08DC0DAE71180123CA68AB401D1C2D
:105590001543CD6011E00BAE335C0DA95A43203D9D
:1055A00001238A18AB401D1C137E9906890E0D43FA
:1055B0003F210D408B431D431576019D3F23061C63
:1055C0002A191E40059665465678A901059D9E43F9
:1055D00035431D40634629430133039E5170DBB2BE
:1055E0000BAA13549E4200DA03930134AEE7019BE9
:1055F000039E493300241E700294754B029C1B6865
:10560000187A8446844200DBD8E0029D5B199A1D1B
:10561000D67F714A126804925A3212780592059820
:105620000022904205D0614601398D4201DA0733EC
:10563000DA7F0123301C191C20381C1CB140844027
:10564000201C06913F210840111C20391D1C8B4055
:10565000DBB20993039B2421013B4B430790039C3E
:1056600028A89540C31808955C3B0194019D002D26
:1056700041D0019D2421013D69430DA841180195A8
:105680007C68CD781F200440854325430020CD70E1
:10569000186018314C783F2084434C701F2E04DC76
:1056A0001968069C2143196004E04C78079D8443E7
:1056B0002C434C70059800281BD06146029C013990
:1056C0008C4216DA1F2A04DC1968089D29431960E8
:1056D0000FE0019C2421614328AD691854394878B2
:1056E000099C8506AD0E25433F242540A043284351
:1056F0004870243BBAE7049E029C33193478803307
:10570000A4065D78A40EFEF7CDFE002813D0334E1C
:10571000882031780135C9B2FAF7EAFC317845437F
:10572000C9B28820FAF7E4FC02344443013D023C4C
:10573000019A6E1C03D02A1E1F2A00DD1F223F2063
:105740003F2C02DCE043C01720400590019C039DE4
:10575000AC422CDA019C24256C430DA91F26101C99
:105760000B19304004905878B043061C0498064347
:1057700005985E703F2630400490605CB043061C84
:10578000049806436654396837291EDC4D43144992
:105790006D18291C51CB51C170CB70C131CB31C1B7
:1057A0003B68019E013301363B600196CEE7029EC5
:1057B0007B680136013302967B601EE7054B3A6831
:1057C0001B68012048331A7000E0002029B0F0BDAA
:1057D000AC0C00200C010020A80C0020540002009A
:1057E0000080005030B585B0FEF71AFE064B01A8C8
:1057F0001B68021C603332CB32C2FFF767FEFFF733
:10580000DBFD05B030BDC0460C010020F0B5604B9B
:1058100095B01B68002704935B7B051C0C3BDBB237
:105820000D22381C9A427841C3B20793594B29681C
:105830001B680BAC01934B331970019B6A684E33A4
:105840001A70019B391C4D331F702422201C03F059
:10585000F5FC514B09971B680A970293029A231C87
:1058600043CA43C343CA43C343CA43C3019E237EBF
:1058700077769B06E6689B0E05960693049EF37961
:105880009F4234DA049E0798F3195B7B191C03933B
:10589000FFF708FE09AB1B5C002B0AD1019E717E4D
:1058A0004A1C72767118FAB20BAE8A760132311840
:1058B0000A71019EF2190BAE31180979039E22324A
:1058C0000139117001221F2E04DCB240059E1643DF
:1058D000059607E00399069E20398A4032433F210E
:1058E0000A400692013309AA13540137C6E70BABED
:1058F000059E1A7E0E963F21069E02988A433243E9
:1059000006781A76B606B60EFEF7CCFD00280AD049
:10591000224B882019780236C9B2FAF7E9FB4643D0
:105920000023023E03D4331E3F2B00DD3F23627869
:105930001F2120788A4362703F2290431340034323
:1059400023706868E37808408B43617E034391438A
:105950006176296824224A43E3700023129313934B
:1059600023610F4BD218131C43CC43C345CC45C312
:1059700046CC46C32B686A68013301322B606A60EB
:10598000044A012012684C32137015B0F0BDC046B5
:10599000AC0C00200C010020A80C002054000200D8
:1059A00000800050F0B5D04BA5B01B6800260193D5
:1059B0003D331B78041C0C3B301CDBB20D229A4299
:1059C0007041CA4B03271B683F1A0397276802934D
:1059D0003F331F70029BC5B260684233059509AD25
:1059E000311C18706C22281C03F028FCC04B079651
:1059F0001B68089624332A1CC2CBC2C243CB43C2C5
:105A000083CB83C2012124234B432A1CEB18C1CA38
:105A1000C1C3C1CAC1C3C1CAC1C3039E0131B1421E
:105A2000F1DB019F002504970395019D049FEB7A0C
:105A30007E1B9E4243DA049B05983D331D78291C4A
:105A4000FFF730FD07AB24221B5C1F2D09DC5A43F6
:105A500009AFBA180123D168AB401D1C0D43D560B6
:105A60000FE0534309AAD318203D0122AA40151C78
:105A70001A7E9106890E0D433F210D408A432A4329
:105A80001A76029F07AABD193835AE783F23115CFC
:105A90009E43B446071C8E011F400096664637435E
:105AA0001F40009B01311F43AF70039DC9B21154C9
:105AB0008D4200DA0391049E01360496B5E7039EF9
:105AC000029BF6B24133002704961E700197864B65
:105AD000019E1B681A7B964200DBAEE0019D24AF5D
