:1000000000280020ED0200000000000000000000B9
:1000100000000000000000000000000000000000E0
:1000200000000000000000000000000000000000D0
:10003000000000000000000000000000B50100000A
:10004000E1010000FD010000B9010000CD01000048
:1000500000000000002934D00123002210B488429F
:100060002CD301242407A14204D2814202D20901E7
:100070001B01F8E7E400A14204D2814202D2490008
:100080005B00F8E7884201D3401A1A434C08A042AB
:1000900002D3001B5C0822438C08A04202D3001B41
:1000A0009C082243CC08A04202D3001BDC08224358
:1000B000002803D01B0901D00909E3E7101C10BC7C
:1000C0007047002801D00020C04307B4024802A1B5
:1000D0004018029003BDC046D90000000029F0D0AE
:1000E00003B5FFF7B9FF0EBC4243891A1847C04653
:1000F000002941D010B4041C4C40A4460123002226
:10010000002900D54942002800D5404288422CD31E
:1001100001242407A14204D2814202D209011B0119
:10012000F8E7E400A14204D2814202D249005B0018
:10013000F8E7884201D3401A1A434C08A04202D380
:10014000001B5C0822438C08A04202D3001B9C08C1
:100150002243CC08A04202D3001BDC082243002823
:1001600003D01B0901D00909E3E7101C6446002CE9
:1001700000D5404210BC7047002806D003DB0020A9
:10018000C043400801E08020000607B4024802A1F5
:100190004018029003BDC046190000000029EBD0B2
:1001A00003B5FFF7A7FF0EBC4243891A1847C046A4
:1001B0007047C046FEE70000034B01225A70A0239F
:1001C0000022DB051A707047C40C0020034B01228B
:1001D0009A70A0230022DB059A707047C40C00209F
:1001E00008B5054B01221A70A0230022DB05DA7640
:1001F00000F0A0FE08BDC046C40C002038B5802524
:10020000ED052B79DBB2002B0CD130490B604B6034
:100210002B89081C9BB28B608A680C30103107F068
:1002200017FA47E0012B0DD1284BD968002941D09E
:100230005A68186982423DDA5A68501C58602B7A15
:100240008B5437E0022B30D1204CE368002B2AD0AE
:10025000226821698A420CDA22689B5C1BBAEB6037
:10026000A3682068C01880B207F04EFA23680133F3
:1002700017E0A2682368201C211CD2180C30103112
:1002800007F0E6F9E368002B0DD0A16822688A1810
:10029000A2601B781BBAEB60A06880B207F034FA4A
:1002A0000123236006E0EB6004E0032B02D1074B3F
:1002B00000225A60C0468023DB0501221A70C04626
:1002C00002221A7000221A7038BDC046A403002012
:1002D00080230222DB05FF321A600421024AFF312B
:1002E000118000221A70704706000040F8B505F032
:1002F00009F94B4B1F22C4B21A60EF2C07D0EE2C29
:1003000001D80134E4B2201C05F016F9F5E700230A
:10031000444A45499A188A4204D24449C958043388
:100320001160F5E7424B434A191D043B934203D247
:1003300000221A600B1CF6E7EFF308823E4B191DF2
:10034000043B9A4203D93D4818600B1CF7E7FFF7BE
:10035000BFFF3B493B48053904F038FE3A4C3B4D62
:1003600001235B4223716371A371E3712B1C3C3346
:100370001A782B1C3D331B7880B21B021343984222
:1003800045D107F04DF9324B32491888324A88423C
:100390000BD06E7D18882B7D36023343984204D1F2
:1003A00013889BB223711B0A637113888B421BD085
:1003B000EE7DA87D138836023043834214D100209D
:1003C0000423013BDBB2FF2B07D0244EEF18F65C71
:1003D0003F79B742F5D10120F3E7002804D0138814
:1003E0009BB2A3711B0AE371E278A37812021A434D
:1003F000184B8A420BD06279217912020A439A4241
:1004000005D0E279A17912020A439A4204D1144B31
:1004100002221A6062B6FEE700F018F9F7E7C0465C
:100420001C00005000000020A403002080AA00004F
:10043000A8030020C00C0020180D0020CDCDCDCD8C
:1004400000C0000000000000C80C0020C0BF000079
:10045000FEB30000FFFF0000BEBF000000B40000BC
:1004600000E100E0014B18607047C046D00C00204E
:10047000014B18687047C046D00C0020014B186033
:100480007047C046D40C0020014B18687047C04626
:10049000D40C0020014B18687047C04600000020B3
:1004A00038B5174C256805F0CDF8E862256805F0E9
:1004B000CDF82863256805F0CDF86861256805F05A
:1004C000CDF8E861256805F0DBF8A861256805F03E
:1004D000B9F92862256805F091F96862256805F088
:1004E0009FF9084B08491B680968A8621878097CBD
:1004F0002268414302331161FC32936138BDC0462A
:1005000000000020D40C0020D00C002082B0F0B5F8
:1005100089B0109C151C0F930693029407900E1C33
:10052000119C04F077FCC7793A4B0497027A964203
:1005300006D11B680021DA69AB00D05A03910BE0A9
:100540001A68354B52691968731C896803964B43C6
:10055000EB1801339B00D05A0499714349194A00A2
:10056000A4182388069E0193019F7318874203D81D
:10057000C61B029FBE521CE0029EB61805960027BD
:10058000F65F013610D01F787EB2B446013601DA2C
:10059000013703E06646002E06DD013F1F7002238F
:1005A0005B42238001202FE0069F79180F78002FEF
:1005B00001D120800CE07FB27C1C05D1019E059FFB
:1005C000301A3880002002E0012F01D1FF2008708E
:1005D0001978039C049E079F48B274437D19002834
:1005E00005DC029EB25E013208D0002906D12A57EE
:1005F00000203E2A08DC0131197005E02A57002A44
:1006000001DD01391970002009B0F0BC08BC02B04E
:100610001847C046000000209003002008B502F0F3
:1006200083FE021E05D10749A9230B7106F0A6FF20
:10063000FEE7054B1B68D868196904F04DFDFFF70C
:100640002FFF08BDAB0400209003002037B506F053
:1006500089FE6C460734207009F028FB09F056FB30
:1006600002F04CFEFFF7DAFF04F0F8FB06F07AFE2A
:10067000051C0E2800D90E25E8B2034B8200D35882
:10068000211C98472570F1E7280100200F4B00221C
:100690001B68191CB4310A60181C0121C83049427A
:1006A0000160826008380260C18242831038416173
:1006B0000260C2610C300183191CD83102602039FC
:1006C0000A84AC330A601A607047C04600000020FC
:1006D000F0B589B000AFB960386005F007FA830063
:1006E0000A33DB08DB006946C91A8D46041C6846DC
:1006F00005F002FA63000833DB08DB006D46EA1AF6
:1007000095466E46301C7E6005F010FA574B1B680C
:100710001A1CB432116863290BDD01204042844663
:10072000181C0021C830664611601C38C661416241
:1007300001601168013111601A1CB032116863291F
:100740000DDD012040428446181C0021C430116098
:1007500066468160191C0660AC3101200860116892
:10076000013111601A1CC032116801290BDD012012
:1007700040428446181C0021D630664611601E385F
:10078000C68341840160116801311160191CBC31BC
:100790000A68012A09DD002201200A608A8340429A
:1007A0001A1C0883B832012111601A1CBC3211686E
:1007B000013111600022111C013C08D3A00028580F
:1007C0007E6809186000305A121892B2F4E71C1CB7
:1007D0000020D0261D18B446AC44FD6065462D6847
:1007E0008D4201D266463160FE68C83635688D425A
:1007F00000D93160261CDA363588954200D2328025
:10080000261CD6363588954200D932800438061C1D
:10081000023C0836DDD11A1CAC3212683D689200E9
:100820009A18111CCC31C43209681268BE688A1A41
:100830002A801A1CB83212680D4952009B181A1CE3
:10084000D832D43312881B880C20D31A9BB2338041
:100850002A88BB617A6100233A1CFB6114320123B0
:100860000B7106F08BFEBD4609B0F0BD0000002004
:1008700073010020F0B5234F1D1C3B68161C9A69BC
:1008800085B0019192000021041C301C09F0D6FAB9
:100890003B68281CDA690021920009F0CFFA019F19
:1008A000002F0CD0201C04F0A3FF174B301C1B683A
:1008B000291C5A69DB6907F0E3F9013FF0E7002CD6
:1008C0000FD1114B1B685F699B69029304F094FE82
:1008D000039004F09BFE0299031C039A381C06F057
:1008E0007DFF301C291C019A07F098FA002C06D1D4
:1008F000054B201C1D6805F093F8FC35E86105B038
:10090000F0BDC0469003002000000020F8B5154B54
:10091000141C1B680E1C1A685B68071CD218920016
:10092000201C002109F08AFA351C002D0BD0381C40
:1009300004F05EFF0C4B201C1B68013D596A9A6A4B
:1009400007F046FAF1E704F069FE051C04F070FEBA
:10095000011C281C06F0AAFF311C201C07F0BAFA63
:10096000F8BDC0469003002000000020F0B5274DE0
:1009700087B02B6805919A6A00219200039009F0D4
:100980005DFA06F019FF04904478002C25D004206D
:1009900004F02EFF2868026A0292029B013B019339
:1009A00019D3436A0199039E5943C91889007118E4
:1009B0000439013B0DD38668029F7E439E19059F33
:1009C0000136B600F2590E689446B44467460F608B
:1009D000EEE7019AE0E7013CD7E72F683D6A013D69
:1009E00011D37C6A039A261C6E433619B6009619F9
:1009F000043E013CF3D3049B30685978FFF72AFB8F
:100A000000043060F4E707B0F0BDC046900300205A
:100A100030B5244D85B02B681A1CF8321178583A3D
:100A2000002904D1191CDC310978002901D00021EA
:100A300011701478002C22D01A1CA43212681A49A2
:100A400001921A6C002002925B6B01AA03930323AC
:100A50004B707C235B42CB7010230B7106F08EFD34
:100A6000296800240B1CA433A8311A6809688A423B
:100A700002DC01321A6011E01C6001240EE01A6CE5
:100A80005B6B0A49019202930920642301AA0B714E
:100A9000039406F073FD2B68A4331C60201C05B082
:100AA00030BDC046000000206C0100207301002012
:100AB000F0B5A74E97B0326804AF1368B96091687B
:100AC0009A1C49004A43F8604908101C01334B4303
:100AD0000830C008C0006C46241AA546013304AC97
:100AE0005B00E3180021201CBB613C6209F0A6F901
:100AF00006F062FE786097486B4604680025211C6A
:100B000094313B6033680D701A68684604325200B5
:100B10003A610832D208D200801A5A6885460432F7
:100B20005200131C0833DB08DB00C01A796204A9E9
:100B3000854604AB181CF961291C7B6109F07EF91C
:100B4000291C3A69F86909F079F9786A6269A36938
:100B5000211CFC6805780094F86934310430019058
:100B6000786904300290386A03F03CFB7C6A0543E4
:100B70002570784CB86823681C1C94342578DA6991
:100B8000191C1B6A00903431B86903F0B7FA0543A9
:100B90002570704C23687C685869227B191C009270
:100BA000FC69703101947C69343302943A6A03F031
:100BB00061FC3C68A54606F00BFE041C07F004FB34
:100BC0002479051C7C62786A624C01280BD12B1CAD
:100BD0009C331B68002B06D106F0DAFB012802D0FB
:100BE000786A04F06DFB236894331B78012B0CD1D9
:100BF0009C352B68002B08D106F0CAFB012804D0D5
:100C000023689C331A68013202E0236800229C3377
:100C100025681A60281C291C7031343003F004FC4C
:100C200033684D491A68686758680A709A68CB78C3
:100C300048707F208343802502206D4203432B436D
:100C4000CB7053238A700B7101323B6A52009A18A1
:100C5000012006F093FC33684049DB697F204B702C
:100C6000CB780222834313432B43CB7001206D23A7
:100C7000BA690B7106F082FC381C00212022283052
:100C800009F0DCF83368282019682922C155586812
:100C90002A21D0559A682B20CA55191C3031097861
:100CA000DB69C1552D202C21CB55C35D7F218B43A2
:100CB00002261E430132C319386A52008218354396
:100CC0001D70391C0092002201202831131C06F0EF
:100CD0001BFC02F019FBFFF79BFE002833D12368B1
:100CE000586904F01BFE2368586F04F0BDFD04F042
:100CF000EFFB2268174C131C94331878002808D097
:100D000002331B78022B04D0131C9C331B68192B55
:100D10000DDD131C126834330092F9683A6A06F04C
:100D2000D5FD2368B8681A68B96906F047FE022045
:100D300004F0F2FAB86907F0DFFA2068783008F0BA
:100D40000BF9022000E00120BD4613B0F0BDC04603
:100D50009003002000000020A40400206C0100206B
:100D6000F0B59400231C0A3385B0DB08DB0069462C
:100D7000C91A02AF8D4602AE7860221C301C0021D9
:100D800009F05CF8231C0833DB08DB006A46D21A42
:100D9000954602AD281C221C002109F04FF80B4C8F
:100DA0002368196BDA6A7033009101937868291C03
:100DB000331C08F0F3F82368291CDA6A1B6B0093D4
:100DC0007868331C07F084FCBD46F7BD00000020A6
:100DD00070B50C1C151C1E1C07F050FD154B201C7B
:100DE0001B68D96A1A6B07F04FFE201C08F088FABE
:100DF000201C291C07F0B2FF321C201C291C07F004
:100E000047FF201C291C03F06BF906F0E1FC041CD1
:100E100007F0DAF98E300378002B09D12379002B03
:100E200006D006F0B5FA012802D0012004F048FAF5
:100E300070BDC0460000002038B508F0EFFE051C6C
:100E4000012008F0FFFE041C281C03F0E9FF201C11
:100E500003F0F2FFFFF7E2FB38BD38B508F088FF7A
:100E600008F0E4FE051C002008F0ECFE041C281C21
:100E700003F0D6FF002004F043FD201C03F0DCFF4C
:100E8000FFF7CCFB04F0F4F938BD10B5A4B0041C96
:100E90008C2201A8002108F0D1FF01A8211C07F035
:100EA00033FF08F03DF801A8211C221C002302F0AA
:100EB00031FB24B010BD000038B507F085F91A4D9C
:100EC0008E302B6801781A79002902D151B2481C62
:100ED00004D10024DC60A2420DD116E0D8681A6962
:100EE000904202DAD8680130D86001290DD0DB6861
:100EF00093420ADB01240D490020231C0E33021CFF
:100F00000B7106F03BFB2B681C712B681A79002AC9
:100F100003D1074A1268127804E0012A03D1044A77
:100F2000126852781A6038BD00000020AB0400201F
:100F3000D40C002070B5104D2C68231CFF335E7F4D
:100F4000F6B2012E17D1206804F094FE031C301C69
:100F5000002B03DD2B68186804F08CFE843404F049
:100F6000AFF904F0CFF907CC002302F0D3FA2B68D5
:100F70000222FF335A7770BD00000020F0B589B01F
:100F8000061C06F025FC059007F01EF9031C98339B
:100F90001A689F4B002A08D1A0300268511E8A416E
:100FA000D2B20492002A06D001E0012004901A680F
:100FB0000021E43205E01A68E4321168FE2901DC00
:100FC000013111601B6800211A1CE0321170049974
:100FD000002904D08F490968097D00295AD0181CBE
:100FE000DF300178C9B2002908D003785BB2022B48
:100FF00000D001231370002303706CE11D1CDC354D
:101000002C78002C09D0012414701A1CDD32E8332E
:1010100001702970117019605EE10498002839D1BF
:10102000191CE8310C68002C09DD013C012C01D0B1
:101030000C602FE0049B0B60032313704CE11A1C1F
:10104000FC3292691188744A914223D01A1CF432FE
:101050001188724A126852888A421BD86D4C2068E7
:10106000427C181CE4300068904213DB07AA118010
:10107000F6331B886A49538002234B70CB70049867
:1010800015230B7106F07AFA614B22681B68927C7B
:10109000E8331A605F4C2768F87C002800D01AE11A
:1010A00004995B4D002900D07EE02C68231CFF339F
:1010B0001B7D002B52D03B1C2C331B78002B4DD0BA
:1010C000231C0791FC33DB680393231CF433039840
:1010D0001A8843009A533B1C2D33197804984B000F
:1010E000F618031C994206D05A00B21A023A128826
:1010F00001338018F6E7FEF7FBFF0790FA8B231CFD
:10110000FC33904202DA1A69013200E000221A61CF
:101110003A1C2E3212781969914213DD40497C2322
:101120005B42CB7001241623002007AA0B714C7080
:1011300006F024FA2B680020FC33D860186106F012
:1011400057FAC9E03A1C2D3212780398013A9042BE
:1011500002DA021C013200E00022DA60F0340137CA
:10116000FB7F22689A4217DB2E4900201223021CC3
:101170000B7106F003FA2A682648131CEC33196831
:101180000068013119600230C07F814204DB002118
:101190001960E032022313702A680023111CDE312B
:1011A000F0320B70136047E02B681A1CE8321060B5
:1011B0001732D27C002A3FD0191CF431098807AAC3
:1011C0001180F6331B881649538002234B70CB7075
:1011D00019230B7106F0D2F92B682268191CF4311F
:1011E0000C88D08B163984421ED2181CF630048825
:1011F000508D844218D2097800291DD1F033013274
:101200001968D27F914217DA0131196014E0C046A3
:1012100000000020D00C0020FFFF0000D40C0020B4
:101220006C010020AB04002001220A70191C00226E
:10123000F031EC330A601A60294D2B681A1CFF321A
:10124000D27C002A47D105990A79002A41D01A1C7C
:10125000DC321478002C3ED1224E586B3768798BE3
:10126000BA8BFB8A3F8B009706F06AFA36682B68C8
:10127000718CB28C071C586BF38C368D009606F07F
:101280005FFA2B681A1CF4321188F633B94202DA7D
:101290001A88824210DB07AA11801B8812495380EA
:1012A00002234B70CB70002017230B7106F066F9F8
:1012B0002B680122DD331A702B681A1CDD3212787C
:1012C000002A08D0049A002A05D0DC3301221A70C3
:1012D00002E0DD331A700124201C09B0F0BDC046C5
:1012E00000000020D00C00206C010020F0B591B06F
:1012F00002AF03F08FFD061C03F0A4FD386103F07C
:1013000095FDB86003F0A4FD031C59331B785A30D7
:1013100001780822181C04F0B3FDB14B68461C6824
:101320000021A3691A1C0E32D208D200801AE26989
:1013300085460E32D208D200801A02AD8546FD6184
:1013400002AD7D62F2799A18131C0E33DB08DB00C4
:10135000C01A53000E33DB08DB008546C01A02AD0D
:101360008546C01ABD6102AD854602A87861B8699C
:1013700008F064FDA169F279281C5218012152007D
:10138000494208F05BFDA369F2799649D2185200F0
:10139000786908F053FDA2693969F8693D6308F07E
:1013A0000BFD3969E269F931FF31786A4024002583
:1013B00008F002FDFC603D62796AF86905F070FC96
:1013C000002004F015FA864D87492B68874C5A682F
:1013D00018684A709A680423CB7051230B712368F4
:1013E0008A705B690132920008709A18022006F038
:1013F000C5F82B687E49DB6904254B705A230B71B5
:1014000023680220DA69CD7006F0B8F8347A013C1E
:10141000631C2CD0F579013D6A1CF8D0F37978690A
:101420006343EB185B001A5A724B9A42F3D0B969C6
:1014300030227960F9627863D219694609CA09C114
:10144000211C7B68F8692A1CFFF760F8002803D08C
:101450003B6A01339BB23B62F379BA6963433869F3
:10146000EB18D15CC25C8A18F969CA54D3E7747A64
:10147000013C601C2FD0317AF3797D694B43E3182E
:101480005B005A5B5B4B9A42F2D0BD6930207D60B5
:10149000FD62C0197D6984467D636846624628CA3C
:1014A00028C0221C7B68786AFFF730F8002803D038
:1014B0003B6A01339BB23B62F379327ABD695A438E
:1014C0002B193D699A5C2919F931FF310B787D6A36
:1014D000D3182B55CCE7424B3C6A1B689A69DB69F1
:1014E000D3189C4206DAFB68013BDBB2FB60002BA1
:1014F00000D061E73C4C337A7F252370F37980205C
:101500006370A370E3784042AB4301252B43034350
:10151000E3700820D223211CFA69237106F02EF80B
:101520003349737A7F224B70CB78082093431D4355
:1015300080235B421D437A6AD323CD700B7106F082
:101540001DF8337A251C013B0FD3F279013AFAD307
:10155000F179FC69594389186118BC68E018873033
:101560000C78007820180870F0E7737A013B08D3F4
:10157000BC68E2187C6A9F321178E25C8A18E254F7
:10158000F4E7F869796A05F08BFB337A7F202B70DA
:10159000F37901216B70AB70EB78802483430B43AC
:1015A00064422343EB70291C1D23FA6900202B7130
:1015B00005F0E4FF0E49737A7F224B70CB7801254A
:1015C00093431D437A6A1E232C430020CC700B7179
:1015D00005F0D4FF05F05EF9BD460FB0F0BDC04682
:1015E00090030020FFFF0000A40400200000002062
:1015F0006C010020FEFF000008B503F017FC8530E9
:101600000378002B02D1FFF771FE01E004F0D8FA55
:1016100008BD0000F0B5CA4C9BB0236800AF9B68C2
:10162000B861BB625B005E1C03F060FF2368FF22B1
:101630009B68F865D31A984200DDFB65F86DBC6ABB
:101640007500041B7C6203F057FF2B1C0833DB087A
:101650006C46DB00E01A85463C656C467C65B94CFF
:10166000012363707C235B423A1CE370211CB1238D
:1016700000205C32237105F081FF0023211CB3425E
:1016800006DA7C6A5A0018197C6D0133A052F6E71D
:10169000F4B24C703C6200247A6D0223201CCB70A3
:1016A0000C7105F06BFF2B1C386D08338546DB0889
:1016B000DB006946C91A8D46C91A68468D46F9632A
:1016C000386404F013FA7861012003F063FE211CF2
:1016D0002A1CF86B08F0B2FB211C2A1C386C08F09D
:1016E000ADFBB300FB610A33DB08DB006846C01AC0
:1016F000796985466A46C01A8900BA638546786367
:10170000B9603C650021FA69B86B08F097FB786B0B
:10171000FF21FA6908F092FB0024894BFC641B68E6
:10172000FC6C5B689C424CDA7C6AE4B2201C3C6333
:1017300003F002FF03F0C0FE03F021FE00207D6BEA
:10174000BC6B7865796DF30F0131CA17B142534113
:10175000DBB279653B61002B06D13A6B5018C0B201
:1017600003F0EAFE03F0A8FEBB6868460A33DB0814
:10177000DB00C11A8D466B46F860181CBB6404F090
:10178000BBF900231A1C79698A4205DAB86C91000A
:10179000415801325B18F6E72268934200D9236072
:1017A0002868834200D22B60F9683A698D46043577
:1017B0000434002A02D103F0E2FDC3E7FC6C0134DB
:1017C000ABE70024604D7C65B44217DAB96B7A6BE5
:1017D000A300C858D358C01A854204DD7B6A051C93
:1017E000E318FB627C64796D814200DA786503F06E
:1017F000C5FD3A6C6300D0520134E5E7786D03F023
:10180000BDFD4F4B1B685B88984206DABC69012C12
:1018100003D0FC6DFC62BC6A7C644C4D32222C68A7
:101820000221231CAC335A6064229A6001220020FA
:101830005A617A6C1860D86019617B6B8A40D35802
:10184000FA64181C7B6003F099FDC434F96CBA6B20
:10185000206088582C6803F091FD2B68CC341A1C4A
:1018600001212060D63200244942DA3311801C80E5
:10187000BC69012C21D1FA6B0023B34209DA3C6C1C
:101880005900615A1088884200D211800133023217
:10189000F3E77C6C6300FC6B1A5B3C6D131CA2428B
:1018A00000D2231C27499BB23C6A3B6500200223DF
:1018B0004C70CB700871FA6B0DE0786D03F05EFD33
:1018C000204980B200223C6A38650A7102203A6CD5
:1018D000C8704C70002005F051FE7C6C6023DC5316
:1018E000FC6A6220C453786C396C44000C1923885C
:1018F000386D64221349D3536623D85304234B70A5
:101900003A1C0223CB706032B22300200B7105F029
:1019100035FE0E4D23882A68111CFC31896909881F
:10192000994217D208F024FA002824D1084B1B68EA
:10193000DB7C002B1FD1012005F054FE1BE0C046CC
:10194000D40C00206C010020FFFFFF7F000000206E
:10195000D00C0020FF32127D002A0CD00E4C2168E2
:101960004A889A4207D9002005F042FE2B68226877
:10197000FC3302329A61BC69002C06D1FC6AE0B2E9
:1019800003F0DAFDBD461BB0F0BD05F0EBFC072807
:1019900000D1B7E6F2E7C046D40C0020F7B50092BC
:1019A00008F0E6F9071C05F009FD061C05F00EFD20
:1019B0005B4D01902B68FF335A7CB2421AD0002E47
:1019C00008D0584900203B23021C0B71002405F06D
:1019D000D5FD0BE001990224002907D151493C2390
:1019E000301C321C0B7105F0C9FD341C2B68FF3311
:1019F0005E7414E09B7C019A93420FD0111C4B4201
:101A00004B41002047493933021C0B7105F0B6FDEC
:101A10002B68019AFF339A74002400E0022405F039
:101A2000A9FC061C05F0C2FC009B032B02D0002E73
:101A300003D107E00024A64234D0002005F0A2FC28
:101A400000242FE02B68FE335E8A002E2AD10099F5
:101A5000012902D0022904D00EE0009805F0C2FD51
:101A60000AE0301C05F0BEFD2B68FF331B7D002B08
:101A700002D0301C05F0BCFD05F0AEFD2B68061C45
:101A8000FF33DB7C83420DD01123002801D11223C8
:101A9000071C24490020021C0B7105F06FFD2B6808
:101AA000FF33DE7408F064F9B8422ED008F060F914
:101AB00008F0BCF8381C08F0B9F808F059F9381CDF
:101AC00008F050F908F022F9174B1B681B7D002B1A
:101AD00007D0002C05D0002003F08AFEFEF7D6FDCB
:101AE00006E02B680024F8331C70201C03F008FF6C
:101AF000002005F07DFD2B6800211A1CFF321175B6
:101B00000A4AFC33126802329A6105F067FC051C30
:101B100006F05AFB0379AB4200D00571201CFEBDD4
:101B200000000020AB040020D00C0020D40C0020CA
:101B3000F0B591B001AD141C061C0F1C0C22002145
:101B4000281C08F07BF9124B04A80193114B0021CB
:101B500030226B6008F072F93B780A946C46099366
:101B60000334002308962370207804AA8300000120
:101B70001018EB58211C9847207005F009FC00282C
:101B800003D105F0EFFBB042EED011B0F0BDC0467E
:101B9000053100001931000010B5044B1C68963463
:101BA000207805F0AFFF207010BDC0460000002077
:101BB000F0B589B002AF3861062079603A6003F071
:101BC00017FE5B4E5B4C33685B4D5B6804206370B3
:101BD0002B685121E07021715A6A211C022005F006
:101BE000CDFC336804221B68211C637051232371D0
:101BF0002B68E27002209A6A05F0C0FC28687C30ED
:101C0000786106F077F8336868465A681B685100B7
:101C100008315B00C9080833C900DB08401ADB0043
:101C20008546C01A02A98546F96002ABBB60F86818
:101C30002B6892B2596A00907B69019338697B687E
:101C400006F064F833683A695968880010182A6801
:101C5000916A1A88BB6800937B6901933B6806F020
:101C600055F833687F205B6802216370E378802237
:101C700083430B4352421343E370211C532301203F
:101C8000FA68237105F07AFC33687F201B68022113
:101C90006370E378802283430B4352421343E37023
:101CA000211C53230120BA68237105F067FCE378F7
:101CB00002207F2160708B43022280201343404228
:101CC0000343E370211C52237A690120237105F03C
:101CD00055FC78692C6805F0FFFE2B6895341A1CBA
:101CE000207095321078341C002803D0013212780D
:101CF000012A16D121681B688A8839690091F96820
:101D000005F08CFE2B6821681A1C953210780A8821
:101D100049683C69890061181B680091B96805F041
:101D20007DFE03F01BFB0220BD4607B0F0BDC046A0
:101D3000900300206C01002000000020F7B53B4C10
:101D4000161C23681A1CDD321278002A1AD01A1CBD
:101D5000FF32D27C002A15D11A1CF83211780029E2
:101D600010D1DC331B78002B0CD10123137003F04E
:101D70005DF803F04FF803F0FDFC022003F010FDC6
:101D8000FEF784FC23681A1CF8321278002A4AD025
:101D90001A1C274F0020DC3210703A680190D26A7A
:101DA000011C013A0ED30E255543AC46B44465469A
:101DB000AD88002DF5D02DB20131A842F1DA281CF2
:101DC0000192EEE71A1CFF32D27C002A13D10129BE
:101DD00011DD06F0F9F90123983003603B68DB6AF6
:101DE000013B0AD3019DAB42FAD00E225A43002197
:101DF000B2189180F4E7002903D023680022FC3355
:101E000005E0FC335A6819688A4201DC01325A60E5
:101E100023681A1CFC3251681268914205DDDC33DC
:101E200001221A7001E0FC335A60F7BD0000002067
:101E300090030020F0B59DB002AFB86102207B6036
:101E400079613A6203F0ACFC381C00212022283072
:101E500007F0F4FF8E4E28203368292219688D4D33
:101E6000C15558682A21D0559A682B20CA55191C8B
:101E700030310978DB69C1552C212D20CB55C35D4C
:101E80007F218B43042003432D21CB552B68013246
:101E90005B6992009A180092391C0022131C0220E0
:101EA000283105F031FB2968081CF430F631FEF7C3
:101EB0000FFC3368784C5B687F226370E378042002
:101EC000934303431340E3705B2323712B68022089
:101ED0009A69211C05F052FB33687F21DB690422DB
:101EE0006370E37802208B4313430B40E3706C2351
:101EF00023712B68211C1A6A05F040FB7969B869C7
:101F0000FEF7D6FD3B6A38611B68386A396A3A6A5F
:101F10007B6240688968D2683B69F861F9603A621F
:101F2000022B00D0A7E0336869469A6BB9601201B2
:101F3000131C0833C81A854602AE301C002107F076
:101F40007DFF2B68FF335B7F012B01D103F04EFB3C
:101F50004F4C301C2368F9699A6BFEF701FF236828
:101F600000215A6B0E235A43786A07F067FF3B6AD9
:101F7000301C796AFA69FEF72BFF7868FEF7FEFFDE
:101F8000464B1B681B7D002B04D1B86979697A6ABE
:101F9000FFF7D4FE786AF96901F0B8FC3D4D2B6873
:101FA000FF335B7F022B01D103F020FB2B68186805
:101FB00003F060FE031C0120002B03DD2B68186872
:101FC00003F058FE03F07CF903F09CF9F969FA6814
:101FD0000123786A2D6801F09DFAFF35687707F0D4
:101FE000CBFA83000733DB082468DB006946C91A93
:101FF000636B0E255D43061C8D46786A02AA3A6221
:10200000FB6145197E62F8690138F86111D32B1C18
:102010000A3B00215B5E002B09DD7A6A3B6A013ACC
:1020200090007A62A91F1818042207F0C5FE0E3D21
:10203000E9E73D1C483500212022281C07F0FEFE60
:10204000E1682269636929701249AB706A70096896
:1020500030342278096B0133EA705B007E22CB18A2
:1020600052426A7100933B6AF2B20320291C05F0C8
:102070004BFABB689D4603F07DFB03F06FF901202E
:1020800003F0B6FB03F002FA3869BD461BB0F0BDA1
:1020900090030020000000206C010020D00C0020E4
:1020A000F7B51A4E051C30680C1C171C00213C2289
:1020B0003430019307F0C2FE15490020A623021C0C
:1020C0000B7105F05BFAFEF7F7FE0199089A381CD0
:1020D000FFF76EFDFFF760FD211C099A0A9B281C83
:1020E000FFF7A8FE3368E022071C9A56281C211C23
:1020F000FFF754FC022800D1381C064B1A68064B27
:102100009A4202D003F0A0FCFEE7FEBD00000020D2
:10211000AB040020140D0020CDCDCDCDF0B593B093
:102120000024161C6A460F1C051CD472211C0C22AC
:1021300003A807F083FE1B4B211C03931A4B30228C
:1021400006A8049307F07AFE3B7818490B93184BC6
:102150000A951B680C96DA6ADF6901920222DA623C
:10216000DC61201C3F23221C0B7105F007FAA20042
:1021700006AB24011819694603ABD3580B319847B5
:10218000041C05F005F9B04206D0094B019A1B6802
:10219000DA62DF6113B0F0BD05F0E4F8A842E6D0E2
:1021A000F3E7C04605310000E9320000AB0400202F
:1021B0009003002038B5074B051C18680C1C3C2206
:1021C0000021343007F03AFE281C211CFEF770FC79
:1021D000C0B238BD00000020F0B5C84EE5B033688D
:1021E00000AF1D687962596802244D437A60052268
:1021F0005C639A63DB696A46EB18A3400A33DB0829
:10220000DB00D21A95466946B961B86002F020FE3B
:1022100005F0E0FF381C00211022403007F00EFED0
:1022200000233B637B633368A5405A6A1B6A5343B0
:10223000A3400A33DB08DB006A46D21A95463B1CF2
:10224000694650337961BB6305F0B6FABA6955192E
:102250003D6141782B1C201CFEF70CFBA84C7869D3
:1022600023685969FEF782FB7B6AB9688B4201D00B
:1022700005F0BCF8A3490020A223021C0B7105F055
:102280007DF9236800249C60FC613C6205F0B6F98E
:10229000061C03F037F9B04205D0301C03F04CF9AE
:1022A00001227A6221E1002C6FD1944B69461B68B0
:1022B000F9605A6A51001A6A01324A43131C083302
:1022C000DB08DB006946C91A8D467962081C211CAF
:1022D00007F0B4FD3A6A8A4D082A06D12B6878695E
:1022E0005969FEF743FB3C624AE0042003F080FAA0
:1022F0002B68786A59697A6905F002FE051E012D7E
:102300000FD104F0E3F8022003F072FA7D49A32311
:10231000201C221C0B7105F031F900232C1C3B62A0
:102320002EE0794D796A2B68786933331A7805F095
:10233000BFFE2B68F96933331B785B00994208DDD7
:1023400004F0C4F802200121BA693B69FEF792FA51
:10235000FC61FA692B680132FA613233187803F0B4
:10236000EBF803F0F9F82B683333187802F0B4FF78
:10237000002002F0D1FF301C03F0DEF803F008F972
:10238000FB6802219D46796298E05F4B01241B683F
:10239000343318785A4B1B68186002F09DFF0220F6
:1023A00003F0FEF9B8693969FFF704FF7862022883
:1023B00000D083E0514D6B462E68FB60B16B0A0183
:1023C000131C08336946C91A8D466846002107F078
:1023D00035FD391C6846B26B4031FEF7C1FC2B68F5
:1023E0006C465A6B0E235A43131C0833DB08DB0080
:1023F000E11A8D466846002107F020FD3A1C3B1C7F
:1024000040323033201C69466D46FEF7E1FCA91CC2
:10241000684607F019F8684669460E30103107F033
:1024200013F8391C684638313A6A07F0CDF838623B
:10243000032803D007282FD1182405E0381C383092
:1024400007F028FB041E21D004F0AAFF2E4B1B68C6
:102450009B6B18400123A34003421DD02C22022174
:102460002D23D019D155DC5505F02CF803F082F955
:10247000012002F025FF23490020A223021C0B713A
:1024800005F07CF808210024396215E003F072F9A8
:10249000012403F0ABF80FE03B6A082BF6D103F000
:1024A00069F9012002F00CFF16490020A223021C4A
:1024B0000B7105F063F80024FA689546104B134A37
:1024C0001B689968914202D09A6801329A607B6ACF
:1024D000022B0AD104F05CFF7968884205D104F030
:1024E00041FFBA68904200D1D0E603F043F903F00F
:1024F000EDFF786ABD4665B0F0BDC0469003002090
:1025000000000020AB040020D00C0020FFFFFF7F64
:1025100070477047F0B5ABB000AF061C02F07AFC14
:10252000C04B69461C686368226858005A435500CE
:10253000D2185200131C0833DB08DB00C91A8D4681
:10254000F86500216846386507F078FC6368226802
:1025500099005A439000D2189200131C0A33DB08EA
:10256000DB00F9646946C91A8D46B86500216846E2
:10257000B86407F063FC6368226899005A439000CE
:10258000D2189200131C0A33DB08DB007964694619
:10259000C91A8D46B863FF216846F86307F04EFC00
:1025A0000CCC5A43D3180733DB08DB006946C91A41
:1025B0008D466B46701E0021FA623B627863796536
:1025C000162810D80123984A8340134206D1974A0F
:1025D000134208D0964B1B682F3302E0944B1B68C4
:1025E00031331B787B65FA6CFB6D92085B083A63AC
:1025F000BB62796DBB6DBA6C786CD2180139F96425
:102600007A64396DFA6BBB6B8008F861D218680880
:102610004D19B8617D617A62FB6C013300D1D4E061
:10262000786B022804D9331C113B012B00D9C8E078
:10263000002003F0DDF87B4B7E4A1D6812682B6892
:10264000BC6E7B66BA63BB65BB6D013BFB6570D33B
:102650006C68013C611C69D0AB68B96DBA6B4B43C7
:10266000E318013352699B009858032E2DD004DCE7
:10267000012E06D0022E0ED0EBE7331C113B012BAE
:10268000E7D8BB6B9B69FB60F968A3005B58C01A75
:10269000C343DB171840FA6D3B6BB96C5343E31827
:1026A0009B005958BA6C40189850FB6C002BD0D145
:1026B000F96DBB6A4B43E3185B00796D3B64FDF732
:1026C000C9FC3A6C3B6DD052C3E7F96D3B6B4B4391
:1026D000B96CE218920052583A64824200D23864CF
:1026E000396CBA6CE3189B009950FB6DFA69F96B71
:1026F0005A43A3189B003A605A589446824200D924
:1027000084463B68F86BE118890062460A50386CD1
:102710007F21831AFD2B01D85B0899B2BB6AFA6D41
:10272000386D5343E3185B00195292E7FA6DBA65AE
:102730008AE7ED69F86DFD65BC663E4BFC6D1D6872
:10274000013C7866A400F96D0139F96539D3E9696E
:102750000859022E09D0032E17D0012E2FD12A6A34
:102760001359C01AC343DB1718407B6C796C1B5993
:10277000FA6CC0180851002A21D1796DFDF76AFC66
:10278000F96D7A694B00D05219E07B6C1A59031E1F
:10279000934200D2131C796C0B51796A0A5990420A
:1027A00000D9101C7A6A1051181A7F22FD2801D80E
:1027B0004008C2B2386AF96A4318F86D1A54043CEA
:1027C000C1E7FA6C013AFA6426E7164D1A222B6823
:1027D00018685968F864F965DC6930331B78381C6F
:1027E00000216C30FB6207F029FBBA693B6D510098
:1027F000181C5918321CFFF78CFEF86D331C113B66
:10280000F863012B66D8112E16D12B68011C5B686A
:102810000139013B3C1C00227B63F96368347A6414
:10282000012317E090030020040040000300030090
:10283000D00C0020000000202B68F86C1B68F96D9C
:10284000013B01383C1C01227B63F864F96364346A
:102850007A6400232D68BB65286878667B6E591EF4
:1028600079657966002B34D06968B966BA6E531EF3
:10287000BB66002AF2D0786D796CBE6A4218386B5C
:102880004243B86DC1188A18B96C92005058796DDE
:102890003A6B4E434A4384469A18B86C92001258D9
:1028A0002168786B9E19760081420EDA6146FA2023
:1028B0008B1A8000891858434910002900DC012137
:1028C000FDF716FC3A6DB052D0E7386D0023335255
:1028D000CCE71C1CFB6BF86DF96A3D1C8835FA6C63
:1028E0006B70A870E970381C391C7E235B422A701B
:1028F0006C311A228E306B712C7107F05DFA281C36
:10290000396D04F085FDBD462BB0F0BDF0B5A3B028
:1029100002AF02F07FFA051C04F042FFE14E684668
:102920003468A369A6685A00111C0E319B00C908BF
:102930000E337E66C900DB086D7A401ADB008546DF
:10294000C01AFD6602AD854602AE281C00213D6519
:102950003E6407F073FAE36968465A00111C0E31B1
:102960009B00C9080E33C900DB08401ADB0085460E
:10297000C01A02AD854602AE281C0021FD64FE632C
:1029800007F05CFA656823686E005A19BE6756192D
:10299000F0184119CB185B00F965033303218B4311
:1029A000FB673867F86F9300C3180A33CB408B403E
:1029B0006946C91A8D4602AB520050089A18B8648D
:1029C000BA63101C0021BA6F7B6707F037FA7A6F81
:1029D000236876007108961979645A00301C00212A
:1029E0007E6307F02BFA666800217200786F07F0AB
:1029F00025FAB86F7E6F216836184A00301C002116
:102A00003E6607F01BFA3E6F606873005E083E6327
:102A10007E6F4200F318181C0021FB6207F00EFACB
:102A2000FE6D206873005E08FE657E6F4200F3183D
:102A3000181C0021BB6207F001FAFE6F6068B6083F
:102A4000BE67B3007E6F8200F318181C00217B6202
:102A500007F0F4F9FE6FAD007519AD083D67AB00E6
:102A60007D6F2268EB189200181C00213B6207F072
:102A7000E5F9002002F0BCFE8A4E8B4B30687E6E7A
:102A80000468321C62431D68B3005B429100FB6125
:102A9000B307F967F31A9107BB61891ABA65013C5C
:102AA00022D34668BA6D931966437618B2003E6C1D
:102AB0009B00B218BA66FA6F93420BD0BA6E042626
:102AC000D21894466A697642D258B4446646326057
:102AD000043BF0E7FE699219FA677E6EBA6D921BAD
:102AE000BE69BA658919DAE76F4B1968FB6E013B5D
:102AF0009B001D1D05D0CA69FC6BD258E250043BF7
:102B0000F7E7BE6F3D6F7C6FB300AE00A619E31808
:102B10007E656426BB66FE67062002F069FE614B97
:102B2000614918680C684568AB00BD65BE6D043B23
:102B3000013EBE650BD3BE6E626AF658FE60D65883
:102B4000FA68B4469444BE6E6246F250EEE70468FA
:102B50000968A300221C043B013A09D37E6DF65894
:102B60003E608E6AF0583E6830187E6DF050F2E795
:102B7000FE6F013EFE67002ECED1B86F6E1E361876
:102B8000796FB6008E19013D07D330686421FDF7D7
:102B900061FA00043060043EF5E73E6F651EAD1932
:102BA0007E6FAD007519013C07D328686421FDF7DD
:102BB00051FA00042860043DF5E7FB6EFC6E013B12
:102BC0009B00FD6C3E6B3B676300EB187B61FD6D0A
:102BD00073005B42BC6C7E6CBB656B0064005B4247
:102BE0007600BC667B65BE64002002F001FE2D4BC2
:102BF0002D4A1868156803687A6E5A439100F96780
:102C00009107891AB967FA66013B34D34168FC6EB3
:102C10000E1C5E436218254C9200091989193C6DFF
:102C200049006118BC6F36193C6CB600A6197E606D
:102C3000FC6FA24213D07E68B418043C2668B446E8
:102C40006E69B4586646361B7E6400268C5FA446C7
:102C50007C6CA44500DA0C80043A0239E8E7FE698E
:102C6000F96EA419FC677C6EBE6F091BBC69F9661E
:102C70003619BE67C8E70C4B00221C683B6F181D55
:102C800016D0E669FD6BF058ED58281A7D69A91831
:102C9000023900268D5F854200DA0880023A043B43
:102CA000EDE7C0469003002000000020FFFFFF7FFB
:102CB000062002F09DFD4C4B4C4C1B682568BE6BFA
:102CC000596A7C33AA8800960193786A7B6F05F075
:102CD0001DF820683C6B42687D6F531E1B195B001A
:102CE000EB18013A0DD3BE6DBD6E99194E5B1C8871
:102CF000311C25B236B2AE4200DA211C1980023BEB
:102D0000EFE7394B7E6B1B680288996A7C3300962B
:102D10000193386A3B6E04F0F9FF344BFC6D186880
:102D20007D6F0268531E1B195B00EB18FA67FC6F7E
:102D3000013CFC670ED37E6D1D889C19211CBC6C68
:102D40000E5B341C31B22EB2B14200DA2C1C1C8056
:102D5000023BECE7264903797F254B708B70CB78DB
:102D60000226AB4380256D42334352202B430A7029
:102D700008713A6D0120CB7004F000FC1B4E1D4C15
:102D800033687F21DB6902226370E37801208B4383
:102D900013432B43E370211C7123FA6C237104F05D
:102DA000EDFB33687F205B6802216370E378522279
:102DB00083430B432B432271211CFA6A0120E370E9
:102DC00004F0DCFB33687F261B6802206370E37825
:102DD0005221B34303431D4321710120211CBA6AD0
:102DE000E57004F0CBFBFFE600000020900300201C
:102DF000A40400206C010020F0B585B00E1C071C57
:102E000004F0C6FA01AC051C0021201C0C2207F0BE
:102E100015F8074B381C0193064B311C6360AB005F
:102E20001B592A1C984702F013F805B0F0BDC046A4
:102E3000311B00001D21000010B5041C04F0D6FA5F
:102E400004F090FAA042FBD006F006FFFDF7E6FB87
:102E500004F054F910BD000070B5061CFDF7ECFF3E
:102E6000FDF712FB1C4B041C1B685D8804F040FA44
:102E7000002002F045FD02F0FDFC02F043FBC0B271
:102E800004F0C2FBFDF70CFBFEF7B6FB04F0AEFA54
:102E900004F0B6FA052815D004D8002814D0032869
:102EA0000AD806E006280AD0021C113AD2B2012A3A
:102EB0000AD8FFF72FFB07E003F088FF04E002F0D9
:102EC000D7F901E002F0BCF904F04CFAB042DFD0CF
:102ED000FDF7C3FF658070BDD40C002010B5041C45
:102EE00004F084FAFEF788FB04F03CFAA042FBD021
:102EF00010BD10B5041C04F079FAFFF709FB04F0CB
:102F000031FAA042FBD010BD10B5041C04F06EFADB
:102F100002F09AFD04F026FAA042FBD010BD7047E3
:102F200010B5041C04F062FA0120FEF773FB04F0F4
:102F300019FAA042FBD010BD70477047F0B5A3B09E
:102F400002AFF860002006F00DFF06F0DFFE002063
:102F500002F0D6FC624C694623685D681868DB693C
:102F60004543EB180733DB08DB00C91A8D4602AE78
:102F70007519FE6101F04EFF01F064FF01F056FF8C
:102F8000F869291C3D6102F0E9FD236868465A682A
:102F9000DB69D3189B000A33DB08DB00C01A8546C7
:102FA00002AE7E6104F022FA381C0021202220307B
:102FB00006F044FF4A4C20202368212619681A791C
:102FC000C1552220F255C2551A1C30321278DB69E5
:102FD0002321CA5525262422D355F35D7F22F019DB
:102FE0009343FE6901221343391C002203702031F0
:102FF000131C0096042004F087FAF869396903F07D
:103000004FFE002002F0F4FB2568364A6E68146813
:103010007E6000237E68B34206DAA06999004058BA
:103020007E6901337050F5E7796810687A698C0021
:10303000EE6914190023B34205DA016A9A0089582F
:103040000133A150F7E73C1C4034201C0021202212
:1030500006F0F4FE2B6878682370AB686070A3708C
:1030600030352A782671E27062797F26B2430425D2
:103070002A4362711B4A013312689B005269211C6A
:10308000D3180022203400930220131C04F03CFAD1
:1030900000212022201C06F0D1FE01232370104BBA
:1030A00010201B68211C1A796270A2701A1CDB693F
:1030B0003032127823716379E270B3437E69002263
:1030C0001D436571131C009604F01EFA04F04AF9C2
:1030D000FE68B04200D167E7BD4621B0F0BDC046F2
:1030E000900300200000002008B504F07FF9FFF7EE
:1030F0000DFC10B5041C04F079F904F033F9A0427A
:10310000FBD010BD08B502F0FDF9C0B204F07CFAA6
:10311000FEF772FA012008BDF0B56F4D0A232C6846
:10312000017802796668007A91B06363102304AF76
:10313000A3632368B860301C5843B961E169FA6041
:10314000421892000A32D208F3187862D200684618
:10315000801A9A000A325B00D2080833D200DB08DA
:103160008546DB00801A04A98546C01A04AA854654
:1031700004AB7600181C39623A610021321CFB61F5
:1031800006F05CFEF8692268861952000021301CA6
:103190007E6106F053FE05F01DF82B6869465E6BF4
:1031A0000E2373430833DB08F400DB00C91A231C29
:1031B00008338D46B600C91A04AA8D46C91A331CB5
:1031C000083304A8DB088D46DB007A606A46D21A11
:1031D00004A9B96295460021221C04ADF86206F0EC
:1031E0002DFE221C0021B86A06F028FE321C281C85
:1031F000002106F023FE394C78682368F96A1A1C0E
:103200000832D067B86A80329033116050601D6018
:10321000334B69461B682D331A785200131C083350
:10322000DB08DB00C91A8D4604AB181C0021BB6209
:1032300006F004FE04F0C0FA061C786A396A8500BC
:103240004D192B1C717800203A6AFDF713FB3A697F
:1032500071780620FDF75AFBFA68BB699A4201D0E3
:1032600004F0C4F8236800229A6004F0C7F9041C33
:1032700002F048F9A04204D0201C02F05DF90124BC
:1032800022E07869154E0090336884330193B96A5F
:1032900002913A69291CFB69386AFEF701FF33681D
:1032A000104A9968041C914202D09A6801329A60CF
:1032B000022809D104F06CF8BA68904204D104F0F5
:1032C00051F8BB699842D0D0F86AFDF7DEFD201CAA
:1032D000BD460DB0F0BDC0469003002000000020A8
:1032E000D00C0020FFFFFF7F031C10B51A7A0C1CC6
:1032F00000781979FEF770FF207010BD08B501F055
:10330000A9FA03F083FF08BD064B00221B68996BE6
:10331000914204D1586C01220A3000DB0A1CA03310
:103320001A7070470000002008B502F0A3FA01F0FF
:1033300003FF01F0A5FE01F057FE164B1B689A7AB9
:10334000154B1B689433002A01D0002200E00122B3
:103350001A60A023DB059A8B0C218A439A83998BF0
:10336000032291439983D97F91430022D9775A63ED
:103370009A6B3F218A439A639A8B30218A439A83BE
:1033800062B602F04DFE03F079FA002801D003F096
:103390005BFC08BDE40C00206401002070B5051C36
:1033A0000C1C161C04F056F8002802D001280AD084
:1033B00023E00E204643AD19EA88FF23FE2A00D8F9
:1033C000D3B2637119E00E2070432818C288FF231E
:1033D000FE2A00D8D3B263710B220A238256C35649
:1033E0000921D31A0822415682568A1A934202DDD5
:1033F000A371E27101E0A271E37170BDF7B5141C15
:10340000061C1E27201A0D1C8A1A7843642100927C
:10341000FCF76EFE2818009A01900A23301B5843CF
:1034200053434000C318601B4743FA21DF190920AA
:1034300078438900FCF75CFE019B64001F18651B44
:10344000009A87208723AE1B40009B0070435343A4
:103450000249C018FCF74CFE3818FEBD10270000CA
:1034600082B0F0B51A1C87B0120C01920D930FAA0E
:103470001E1C538836B203930023D75E041C0D0C28
:1034800008B23A1C311CFFF7B9FF019B039A80B2C6
:103490001BB20290208028B215B2191C2A1C01937D
:1034A000FFF7ACFF80B26080B74206DD029A13B22C
:1034B000BB420ADCB3420DDA07E0B7420ADA029AED
:1034C00013B2BB4201DBB34204DDBE19F70FBE19D4
:1034D00076102680019B9D4205DD00B2A8420ADCE1
:1034E00098420EDA07E0019B9D420ADA00B2A84238
:1034F00001DB984205DD019AAD18EB0F5D196D10E7
:103500006580201C05F0CAFF07B0F0BC08BC02B003
:1035100018470000F0B597B00F93C24B00261B6808
:103520000C909C68DD680D940A951C695D699B6927
:103530000B940793BC4B0E911B6806928E331E7042
:10354000099503F08DFFB94B01241B68FF335B7CA9
:103550000894B34257D00E9D0C9C0896371CB44B70
:103560001B68DB6A9F424EDA2B8812A803806B88A7
:10357000438005F093FF0420235E002B3FDD23886A
:1035800011AE33806388301C738005F087FF002103
:10359000735E0D9A9A420ADA0A98984207DD022170
:1035A000725E0B98904202DA0999914222DC042063
:1035B0002A5E002A1BDD9C4A1268D2192832127832
:1035C00052B2012A13DD0D9907980A1A9A420EDAAF
:1035D0000A990A189A420ADD11AB02229B5E0B99E6
:1035E0000A1A9A4203DA09990A189A4205DC00235A
:1035F000A38004E00122089201E00123089301372F
:1036000008350E34ABE7012400250E9F0C9E09946B
:103610000A95874B099D1A68013DD06A0795854236
:1036200000DB09E13B8812AC23807B88201C63808F
:1036300005F034FF0420335E002B00DCBEE033884D
:1036400011AC23807388201C638005F027FF0F9D39
:10365000002D2CD0069D0423EB5E002B25DD0420DD
:103660003B5E002B23DD311C0E2201A806F0A4FBDB
:10367000069D391D6A882B8812041A430A92EA882B
:10368000AB8812047D881A433B882D040B921D439E
:103690000422684606F090FB201C0A990B9A2B1C0A
:1036A0000124FFF7DDFE0A9401E001250A9511AA25
:1036B000108812AB84465C8818885B4B079D1B689A
:1036C00052885B19603319795A4B1B68002901D164
:1036D0005C3300E05D330425795F1B78002910DD41
:1036E00024B211B2091BCC1709196140994208DABA
:1036F000654600B229B2091AC81709184140994213
:1037000047DB089C002C44D013AC237880256D4205
:103710001D43DF200540307B0123402118400D432D
:1037200010239D43000109990F2328439843194012
:103730006546014328B26578001218409D43217008
:1037400011B228430912E270B288034009011943FB
:103750006046131C12B26170A070FF2A00DDFF23C7
:10376000211C079A0C982371FFF718FE201C03F008
:1037700081FE2D4B04217A5E1B68002A04DD079C24
:1037800001221B19603303E0079D00225B1960339F
:103790001A710F9C002C36D13B88069D2B807B88AC
:1037A0006B8004257B5F002B29D01F4B079C1B6877
:1037B0001B1960331B79012B25D120E004257B5F89
:1037C000002B20DD13AD00210C22281C06F036FB57
:1037D000099A0F231A4040210A432A7001202056DB
:1037E00062888446032020562188644600012340D5
:1037F0000343281C6B70A970EA7003F03BFE33880A
:103800003B8073887B80BB88069D099CAB80B38816
:103810000134BB80F3880835FB800994083706958E
:103820000E36F6E6080D0020980300200000002068
:1038300090030020040D0020324F3B68191C181C17
:103840008E309831096804789C330C4304701960F9
:103850002D4B1B68FF335B7F012B4DD0D3690F25A8
:103860005C1E1D40611C3CD0264B61001B6807910B
:103870005B181A1C78320020125E6E33002A16DCA8
:103880001B8819B20693089100291EDD13AE0C2285
:10389000301C002106F0D2FA8023069A08982B43A8
:1038A0003370131CFF2800DDFF2333710AE0002171
:1038B0005B5E002B09DC13AE301C00210C2206F0ED
:1038C000BDFA3570301C03F0D5FD3A680798013C0D
:1038D00013181A1C6E331B8878321380013D0F2396
:1038E000BFE73B681A1CA0321268191CA4310A6099
:1038F0008E3319780A431A7003F0D0FD0A9817B076
:10390000F0BDC046980300200000002070B5124BA7
:10391000051C1B680C1CE6331B78002B1BD00F4AC0
:103920001368161C191C9C310968002905DDA43395
:103930001B68002B01D105F0F3FA33681A1CA4327E
:103940001268002A07DD9C331B68002B03D1281C5A
:10395000211C05F0D9F970BD080D00209803002046
:10396000F0B591B00E91089003F032FFBD4B0121EC
:103970001B680E201A1C6A321278089C91401A1C8F
:103980006B3212786C33891A1A7800258B1ADBB2E5
:103990000F93B54B09951B680A950B93A8330D93AC
:1039A000B24B1B68DA6A5043111C23180E3B0139D5
:1039B0000BD3DC88099EA64200DA09940427DC5F59
:1039C0000A9DA542F2DA0A94F0E7089E013A3018FF
:1039D000083807920590079F013700D1B7E0059F8F
:1039E000023F00203B5E0697002B00D1A8E09D4BD4
:1039F000059E1B6830881A1C5E3215789A4A196930
:103A00001268983214681A1C1432022C01DD343307
:103A100000E0243303F0A5FE041CFCF73BFD914BB2
:103A20001B681A1C5F321278002A01D1642245E01B
:103A30002A1C0B9D5D35FF35287800281CD1069F78
:103A400064210026BE5F171C714367438C460B99A7
:103A50005531FF31BC450DDDA6420BDC844F0E68AD
:103A60003F6801360E60DA373F78BE4204D1012646
:103A70002E7000E0002008600B985D30FF30017868
:103A8000002915D0069E0B990025755F5531FF3131
:103A9000A5420BDD0D681E1C01350D604E363678D3
:103AA000B54205D1002505700D6001E000200860D9
:103AB0000B995D31FF3109780029B7D06A49079F1A
:103AC0000968069DC819283006780020285E002E57
:103AD00005D01D1C4E352D7876B2AE421ADC642519
:103AE00045435443A5420FDB1A1C54321278099FF8
:103AF000059E7A4334889211944205DB9B6D0A9CA3
:103B000063439B1198421BDA059D069E00232B8080
:103B100033800CE044331B78564D5C43684362436A
:103B200090420DDA059F069C00233B802380079A74
:103B30000E3292008A18983153600B68013B0B607B
:103B4000079D059E013D0E3E0795059643E7464BB2
:103B500000221B680E9D98331A60444B1B68DB6A79
:103B60005C1E0594059EE2000E247443AF18089D68
:103B70000C2272432C193F330B9D0D9E5B00EB18FA
:103B8000B218AA3307920993059E374D013600D12A
:103B900000E20426A35F334A002B00D1BBE1059E5F
:103BA0002D681268A9190B1C283318784E32013081
:103BB000C0B21870127840B2961DB04201DD0432D6
:103BC0001A702823CB56012B05D123883B806388AC
:103BD0007B80E388FB80059EAB1928269E57012E2B
:103BE00000DC80E1B01C0321FCF7D8FA0A91022E18
:103BF00042D11E4B00203A5E1E6802217B5E69693D
:103C00002D69F0686D10551B36698C46E917013E29
:103C10006D1836024D40761B7F2E0ADD6546691011
:103C2000591ACE170138891900027140401A7F28AD
:103C30000DDC0021605E801A0222A15EC91A04F028
:103C400015FD0B2803D93B8823807B8863800323E1
:103C5000013B19D32188079D5A00A9526188AA18EF
:103C6000D180F5E7040D0020980300209003002088
:103C7000080D0020102700000A9E079D3A88730057
:103C8000EB181A807A88DA80D34B059E1B680221D4
:103C9000655E9B1928331B780020265E5BB2089373
:103CA000032B00DC15E10A9A07985300C318198802
:103CB000101C0D91043003210693FCF76FFA079A4C
:103CC0004B00D3181888DB88069A0E93089B84460D
:103CD000D188042B08D10022B85E301AC317C0184F
:103CE00058400226BB5F09E0099B0020185E301A8D
:103CF000C61780197040099E1423F35EED1AEA1767
:103D0000AD18554023884019099D059E2B80638876
:103D1000B24AAB820B9DAB192133FF331D78002DC6
:103D200006D0156872352D88A84208DC002505E00C
:103D3000156874352D88A84201DB01251D701B789C
:103D4000002B2BD112688021131C703212886E3325
:103D50001B8800924A0003F0F3FC069D061C00201D
:103D6000215E0020285E0B1ADD175A19069B6A4057
:103D700094460222A55E06229A5EAD1AEA17AD1895
:103D800055406544321C2B1C05F0FEFB069B208031
:103D90000222A15E0620185E321C78E00D9E60466D
:103DA000B5B22B1A1BB2DA0FD3180E9A89B25B1078
:103DB0000D938B1A1BB2DE0FF3180020265E5B10EA
:103DC00008960220265E0E930C960D9EAB19089D58
:103DD0001BB2EB1ADE170E9D9B19734049190C9EFE
:103DE00009B2711AC817091841405B180025802BC9
:103DF00001DD1D1C803D0A9803210530FCF7CEF93A
:103E0000079E764B49001B687118039106991A1C8E
:103E10000020085E6B320F99167801321278414308
:103E200003980A920022825E0898724389180A9ABF
:103E3000424388181A1C6A3212780699104104907D
:103E40000620095E0F986D334843844603981B781B
:103E50000621415E0C984E430A9966444143761808
:103E60000E9916415943114176180D994B43134150
:103E70001A1C049B089998188022D2002B1C05F06C
:103E800083FB80222080D2000220215E301C2B1C6C
:103E900005F07AFB514D60802B680421785E042286
:103EA000A15E523300269A5F431ADE179B197340B6
:103EB00005F06AFB2B68A080F888E1885233002562
:103EC0005A5F431ADE179B19734005F05DFBE080D3
:103ED00009E000203B5EF6187610268002217B5E0A
:103EE000ED186D1065803C4B3C491A68059D0968CA
:103EF000531928204E3118560978884203DC0122D4
:103F00005242A28003E098321168013111603033CF
:103F100000229A7032E02E68059912687018069295
:103F2000021C283200269657B446069E4E36367836
:103F3000B4451CDD0426B95F00291FD030308678D7
:103F40000136F6B28670069976B24F3109788E4204
:103F500013DC3B8823807B886380BB88A380FB883D
:103F6000E3802B6898331A6801321A6006E00B9DD3
:103F7000059E1370AA192132FF321370059D079E0A
:103F8000013D0595099D0C3E023D083F0E3C0796FC
:103F90000995F9E52B680022A0331A60104B1B68C5
:103FA000DC69013C611C00D197E02868620082183E
:103FB000161C6E36378805970599084F002918D0CA
:103FC0007823995E8C4605990BB26146002909DC7D
:103FD00039684C3108E0C04698030020040D0020E9
:103FE0009003002039684D3109788B4201DA0023B3
:103FF000338031880319079300293FD0803305931C
:10400000987884467F2804D001239C440598634611
:104010008370079B80339B785BB2022B13DD783271
:104020000023D05E3A6809B2944652229444634613
:1040300000229B5E0593431ADA179B185340059A9A
:1040400005F0A2FA30802B6802201A19111C803169
:104050000856396850310978884207DC211C343110
:1040600049005B1801214942D98003E0A033196857
:104070000131196080320023D37192E73F68079BBA
:10408000069780330227DF5705975027BC46069FC7
:10409000BC4467463F78BC46059F674518DD7832CB
:1040A0001288002A00D17CE7DF79BC460127BC4496
:1040B0006746FFB2DF717FB2BC46069F51373F783B
:1040C000BC4508DC3280A03003680133036068E738
:1040D000286803198033997063E711B0F0BDC046BA
:1040E00038B5041C0D1C00F0B7FB03F051F9012892
:1040F00003D0201C291CFFF733FC38BDF7B50C1C7E
:10410000151C061CFCF7B4F9FCF7BEF900F082FEA2
:104110002F4F30493B680220DB692A1C4B70042377
:10412000CB705A230B7103F029FA231C3A33002277
:104130001A703B68DA69284B1968284B1B68019391
:10414000274B18688446013A38D30B789700E85912
:10415000002B07D0019B9B180093F933FF331B788A
:1041600058438011089BDF593B0C1B1A11D4487B24
:10417000834202DB0120674638710F2008568342D4
:1041800012DB6768181A38186060206A01302062F4
:104190000AE011200856834206DC2769181A3818ED
:1041A0002061A06A0130A06250003352201C3A30D6
:1041B0000778BB4200DA3B1C0370C4E7064B3A3475
:1041C0001B6822781B7A00209A424041C0B2FEBD93
:1041D000900300206C010020F80C0020FC0C002053
:1041E00094030020F0B591B00C1C07920F90FCF7DF
:1041F0003FF9FCF749F9864D86492B681E7A0896E7
:104200005B89854E099333681F6858689A68042350
:10421000CB7051238A700B710132079B920048705A
:104220009A1802200F7003F0A9F9231C35330022DD
:104230001A709A703168013B7F271F709F70774812
:104240004B680068013BDBB20C9075480B930B6820
:104250002E680068013B5BB2B4460D900592039254
:10426000002B00DA9AE00B9F58007AB20690002AE1
:1042700000DA91E08E685D1C75430135AD18079F2B
:10428000A80000956546C0592F784E68002F09D0C8
:10429000351C5D430C9FBF187F5D0D9D7843AD6855
:1042A000684300135E43169F9619B600F6590F9F98
:1042B000360C301A009E7500E8536646002857DB1E
:1042C0000F257557A84212DB2768451B7D1925600D
:1042D000E56910270135E561F757F67BA56876B2E9
:1042E000B84201DC861B00E0BE1BAE19A660656902
:1042F000A84204DDD6B2DFB20E960A976061664628
:10430000357BA8421EDB251C37350026AE5796426A
:1043100000DA2A70251C36350026AE57964200DD9D
:104320002A70251C35350026AE579E4200DA2B70C8
:10433000251C34350026AE579E4200DD2B70059FAC
:104340000137059785B2189F56000195BD5B019F07
:104350007D192F1C189DAF53179D069EAF5B019EC4
:10436000F519179F069EBD53039F3F18039711E051
:1043700011257557A84206DCE768451B7D19E560E5
:10438000656A01356562A569A84200DAA061039EED
:10439000361A0396013A6AE7013B61E71E4B039820
:1043A0001B6801259969FBF7A3FE1E497C235B422C
:1043B000221CCB70E06276232C32281C0B714D70CE
:1043C00003F0DCF8059F231C01223533276300210D
:1043D000524259569A56124B1B68914201DB1D718D
:1043E00001E000221A710E9D231C0A9E38331D70B5
:1043F0005E706769089D0120AF4206DA099EA369D5
:1044000032B2D80FD1179A424841C0B211B0F0BDB4
:10441000F80C0020A404002090030020FC0C0020D5
:10442000940300206C01002007B5104B3A301B6844
:104430000278987C0968424392098A4200DA0A1C91
:10444000997B4A43921101921B7B9A4200DA0193B5
:10445000074901234B707C235B42CB7006201F234E
:1044600001AA0B7103F08AF801980EBDF80C002028
:104470006C010020F0B591B0089316AB1B78BD4CD1
:104480000F9300234B72CB720D907F2320680B7229
:104490008B7206910A920323C3562027FF1A022328
:1044A000C35608997F00FF1A89687F10FFB20591F3
:1044B00007970422815E0623C25E0823C356407A12
:1044C00040B20090059803F03BF9AB4B80021D68A9
:1044D0002968FBF70DFE24686A682378002B00D159
:1044E0006EE0189D911CEB8849006B802B892E1C77
:1044F0002B800B1FEB181D887552991E0988D980D7
:104500006178002903D0079D6FB27F0039E0023B3C
:10451000013A39D35E88DD88032161567519079EFB
:104520004D431F8871B21E89BE194E430221AD1939
:1045300061569E8871436918891141430914198194
:10454000E5E7032565575988DE886D00AC460D1CEC
:10455000B14200D2351CADB266466E431D89B446E9
:104560001E88311CAE4200D2291C0225655789B233
:104570009E887943754361444D19AD1145432D140F
:104580001D81023B013ADCD2089F0B20BF680497D3
:1045900020560422A15E0623E25E0A23E356009021
:1045A000381C03F0CDF8744B80021C686168FBF77F
:1045B0009FFD704B21681B681A78002A0CD164E0BB
:1045C000531C189F5B00FB18013ADDD31988023B8E
:1045D00041430914D980F7E7179CE288251C6280C3
:1045E0002289261C22808C1C6400221FAA18158890
:1045F0003553941E2488D4805C78002C03D0079C0B
:1046000067B27F0039E0023A013939D35688D5883C
:1046100003241C577519079E6543178874B21689C1
:10462000BE1966430224AD191C57968874432C1991
:10463000A411444324141481E5E703255D575488ED
:10464000D6886D00AC46251CB44200D2351CADB2F4
:1046500064466C4316881589A446341CAE4200D2C9
:104660002C1C02255D57A4B296887C437543644494
:104670006519AD1145432D141581023A0139DCD27B
:104680001A7B9446002A23D00BE04A1C179D520047
:10469000AA180139F4D31488023A44432414D4806C
:1046A000F7E7089E0E27D95FB0680022944688423B
:1046B0000EDD10241A5F9B7C01255BB200936346DC
:1046C00003F03EF810231B1A9B000C900E93AC468F
:1046D000294B00261868089601684B1E5B0007935B
:1046E0004F1E099700D298E04368013B00D28FE04B
:1046F00067468468002F41D00A1C6243D6180A9F7F
:1047000001367600BD5B0B922AB2D243D2172A4003
:10471000099D5F1C0235654302967D190A9E6D0056
:10472000AE5F12B20396964200DA03920B9E341BE0
:104730003C190A9F6400E45F944200DA141C039E53
:104740000A9F3519029C3E190224375F141EBC4291
:1047500000DA3C1C023E2D190027F45F161EA6420B
:1047600000DA261CAD190C9C0E9E65437243AA18F4
:10477000921109E00C0D0020900300204C431C19FD
:1047800001340A9F6400E25F189D5C002C192489A3
:10479000179E079F121BF41924895D10121B099C98
:1047A0001E192A4C344004D50226013C764234437B
:1047B0000134079E0F9F3419BA4218DD069F0B265D
:1047C000BE57AE4200DAFD72069F0A26BE57AE42C1
:1047D00000DDBD72069F0926BE57A64200DA7C7234
:1047E000069F0826BE57A64203DD3C7201E0002A60
:1047F00004DD089E964202DA089200E00022476932
:1048000001347C432C1901340D9DA40062516CE7E6
:10481000079E0999023E079662E70899069C42693D
:1048200021600B490D9F8A707C230132C56806699F
:104830005B429200CB70BA18832305200D704E7036
:104840000B7102F09BFE11B0F0BDC046010000806C
:10485000A404002070470000F0B58BB0041CFBF7E7
:1048600019FE03F08FFC03F0AFFC3A4B0E201B68DF
:10487000D96A8C46013948430901201800916346E2
:10488000013B9C4664D30423C25E334B002A58D0BC
:10489000009C1B191A68022A01DC01321A60DA88AE
:1048A0001A819A89DA819A88DA805A899A810288EB
:1048B0009A8042885A811A68032A44D1013A0ED359
:1048C00055005D1994000427EE5F211C1024641824
:1048D0006F46E6510A242E5F07AD4E51EEE70023E6
:1048E0001C1C01340294002510266F46F618F65958
:1048F00004AFDA1952195168039601918E4205DD11
:104900001026F6186F46F1510399516007AA9E5878
:1049100001969E187619776801990397B94201DDCF
:104920009F507160029E0435012E02D1022702972A
:10493000DAE70433022CD4D1059B0380536843800B
:1049400001E000995A50009A0E38103A009296E70A
:104950000BB0F0BD90030020B8030020F0B5A9B063
:104960000FAD059000216422281C05F067FA06A807
:104970000021242205F062FA00246300E858019324
:1049800028236343304F02903A1C3232D2180492EB
:10499000002605980499835F885FFA2158438900AF
:1049A000FBF7A6FB029A02361018502E01D0029097
:1049B000EFE73B5F019AC0180234A850322CDCD1DB
:1049C0000023E958002901DA0022EA500433642B5D
:1049D000F7D10024670018206946C01940581921F2
:1049E00061431A4B01901A1C14328A180292002655
:1049F00002987200835FA858FA2189005843FBF798
:104A000077FB019902360818322E01D00190EFE7AA
:104A10000E4B18370233E35E0234C0186B46F85071
:104A2000122CD7D1012252420023990006A84158E6
:104A30008A4202DADAB203920A1C0133092BF4D15A
:104A4000039829B0F0BDC046D89E0000D8A600004B
:104A5000F0B585B00192021C5232041C0D1C861C5C
:104A60000292B31E0422A85E03930022AB5E184F8D
:104A7000C01A01997843FBF73BFB039B019918800F
:104A80000222AB5E0622A85E0435C01A7843FBF70B
:104A90002FFB029B308004369E42E2D100230D4A58
:104AA000E15A56329A5A8A1AE2520233502BF6D100
:104AB0000025635FFA2080005843074B2633E95EE8
:104AC000FBF716FB60530235502DF2D105B0F0BD57
:104AD000A086010058A80000D8A8000030B5002228
:104AE0000C7D131C8D5CA54201D00133DBB2013279
:104AF000142AF7D1022B14D8012303700B7D062151
:104B0000181C884301280CD1032B0CD003D8101C8F
:104B1000012B09D005E01620052B05D01720072B07
:104B200002D0002000E0152030BD000013B51C4C61
:104B3000019001A9201C042205F03EF9A023DB0509
:104B4000597960780F221040914301435971607880
:104B50005979000900011140014359719979A078F0
:104B60009143104001439971A1789879090909018D
:104B700002400A439A71E17858680A4A890789090C
:104B800002400A435A60E17858684907064AC90F4B
:104B9000890602400A435A6022781A7113BDC04642
:104BA000D80C0020FFFFFFFCFFFFFFFB1B4A032385
:104BB000D178184099430B1C034330B5D370A02320
:104BC000DB055C7955780F210D408C432C435C71DB
:104BD00055785C792D092D010C402C435C719C7932
:104BE00095788C430D402C439C7194789D792409D1
:104BF00029402401214399715C680106084820403E
:104C000008435860D0785C6840070649C00F8006AA
:104C100021400143596012781A7130BDD80C002030
:104C2000FFFFFFFCFFFFFFFB1B4A01231840D37867
:104C300030B504248100A3430B43D370A023DB05CC
:104C40005C7955780F210D408C432C435C7155786D
:104C50005C792D092D010C402C435C719C79957871
:104C60008C430D402C439C7194789D792409240138
:104C7000294021439971D4785D680849A4072940E7
:104C8000A409214359605C68810605482040084317
:104C9000586012781A7130BDD80C0020FFFFFFFC5D
:104CA000FFFFFFFB1A4A0F21937808408B43034311
:104CB00030B59370A023DB055C7955788C430D40AB
:104CC0002C435C7155785C792D092D010C402C43E7
:104CD0005C719C798C432043987190789C79000991
:104CE0000001214001439971D0785C68094980072F
:104CF0008009214001435960D0785C68400706492B
:104D0000C00F800621400143596012781A7130BDEE
:104D1000D80C0020FFFFFFFCFFFFFFFB1A4A0F210A
:104D20009378084000010B40034330B59370A023F3
:104D3000DB055C7955788C430D402C435C715578CC
:104D40005C792D092D010C402C435C719C79957880
:104D50008C430D402C439C719C79214008439871F1
:104D6000D0785C6809498007800921400143596077
:104D7000D0785C6840070649C00F80062140014397
:104D8000596012781A7130BDD80C0020FFFFFFFC6B
:104D9000FFFFFFFB194AA02330B5DB0510705C79DB
:104DA00055780F210D408C432C435C7155785C790C
:104DB0002D092D010C402C435C719C7995788C4316
:104DC0000D402C439C7194789D792409240129403D
:104DD00021439971D4785D680949A4072940A40941
:104DE00021435960D1785C684907064AC90F890692
:104DF00022400A435A60187130BDC046D80C0020CA
:104E0000FFFFFFFCFFFFFFFB014B18607047C04630
:104E1000E40C0020014B18687047C046E40C0020E9
:104E2000014B18607047C046E00C0020014B186829
:104E30007047C046E00C0020014B18607047C04628
:104E4000DC0C0020014B18687047C046DC0C0020C9
:104E5000014B18687047C04664010020F7B52F4B1E
:104E60000021081C1A78013352B28018DA7B52B242
:104E700089182B4A9342F5D12A4B00221B785BB24A
:104E800098420BD1284B1B785BB2994206D1274937
:104E9000F523101C0B7102F071FB012200231F4847
:104EA0001C1C19180D7807200540A0211034C905D5
:104EB00064005543665A05408643301C28431C4D08
:104EC000605258190778151C0F20054007406F43A2
:104ED0000740FF000097665A7827BE43009F3E4375
:104EE000144F6652DE193678064075432840665ADC
:104EF000C501114830402843104D605258190578BB
:104F00001F20054055432840655AC0026D056D0DB0
:104F1000284301336052062BC1D1F7BD8000020047
:104F20008C0002008F0002009F000200AB040020F2
:104F300086000200900002007FF8FFFF960002004A
:104F400001207047F7B5184B00201A7852B256323C
:104F500028D11B789C46154B1878154B40B21F780A
:104F6000144B7FB21E78144B76B21D78134B6DB282
:104F70001C78134B64B21978124B49B21A78124B51
:104F800052B21B78019363465BB29C466044C019E1
:104F900080194019001940188018019A53B2C01A9C
:104FA00043425841C0B2FEBD500002005200020010
:104FB0005100020053000200540002005800020099
:104FC000590002005A0002005F0002008023DB0249
:104FD0000022188059809A80C046024B188880B2FF
:104FE0007047C04606000400164BC0229200985835
:104FF0001549014099509958FF20814340200143B1
:10500000995098581149014080200004014399505B
:10501000985880210002000A090601439950022293
:105020001A6001221A60082104221A6019600F21F7
:105030001960FC3300215960054B19690A431A6154
:105040007047C04600E100E0FF00FFFFFFFF00FFE8
:1050500000ED00E013B5094A042413780021DBB207
:105060001C4301910198F421FF31884205DC137043
:10507000C046147001990131F3E713BD0D000050D3
:1050800030B5114B03211A68A02382321478DB0556
:105090009D8BA4080D480C402840A402204398830F
:1050A00010789C8B00090140080309492140014305
:1050B00099831178988B8907064AC90F49020240E3
:1050C0000A439A8330BDC046E00C0020FFF3FFFF87
:1050D000FFCFFFFFFFFDFFFF13B500221F230130AD
:1050E0000092019218406A46C9B210704A1C0231FF
:1050F0001A40A0240B406846E4059B004270C37030
:10510000201C69460822103004F056FE2369C02294
:105110009343236113BD00000002064B000A0138CF
:10512000002258609A6005221A60C0461A68D103AE
:10513000FCD5704710E000E0F0B5394F85B03C6811
:1051400003AD7D34211C281C042204F035FE637855
:1051500001221B0901932B7804211343022293435C
:105160008B43182293437F2213402B70019B0F2601
:105170001A016B78A478334013436B70AB78240723
:10518000240FB343102223439343AB700399A0250C
:10519000ED05A960FFF75EFF3B6818217D331A78A3
:1051A00018231A40AB688B431343AB60AB680422EF
:1051B0001343AB60AB6880221343AB60FFF7C2FEC2
:1051C00000280CD00D2C01D1164B06E00B2C01D180
:1051D000154B02E0062C02D1144B1C783440AB680E
:1051E000134F144E3B40AB60AB6813483340AB6089
:1051F000FFF792FFAA6880235B031343AB60AB68A1
:1052000024041E402643AE600C48FFF785FF019939
:10521000AA680B0317401F43AF6005B0F0BDC0463E
:10522000E00C00205A000200590002005800020061
:10523000FF0FFFFFFFFFF0FFFF0F0000FF6F0000F9
:1052400010B50A48A0230068DB05D96994300068CE
:105250000322890801248440114021430A4091001F
:105260009A8B0C2082430A439A8310BD640100206C
:1052700010B50A48A0230068DB05D969943000689E
:1052800003228908012484401140A1430A4091006F
:105290009A8B0C2082430A439A8310BD640100203C
:1052A000A023DB05D869054B00071B68800F9433EA
:1052B0001B681841012318407047C0466401002054
:1052C000044B82B0019001AA188092789A7002B0C3
:1052D0007047C0461800005007B500F0CBFC074BE4
:1052E000019001AA188092789A70054B00221A70DA
:1052F000A0230122DB05DA7607BDC0461800005066
:10530000C40C0020034B00221A70A0230122DB05ED
:10531000DA767047C40C002008B572B6064B1B5CE9
:10532000002B03D1C04662B630BFF6E762B600205C
:10533000FFF73CFC08BDC046C40C002008B572B69F
:10534000054B1B5C002B02D1C04662B6F7E762B684
:105350000020FFF72BFC08BDC40C0020A023DB05B8
:10536000DA680121120ED8689143034A0906024007
:105370000A43DA607047C046FFFFFFFE704708B57A
:10538000A0230120DB055870FFF7C6FFFFF7E6FFFB
:1053900008BD000010B5041CFFF7D4FD022C06D098
:1053A000052C02D0002C04D101E0002401E0FBF721
:1053B00071F80C4B64001B687F221C19231C5933A5
:1053C0001878A023DB05D968104091430143D960C8
:1053D0005A342178D8680A401102034A02400A432D
:1053E000DA6010BD64010020FF80FFFF214BF7B59C
:1053F0001A68214B1B68DB7C5B069B0E0193517E78
:1054000000238D005519581E5B18002B26D0531809
:105410001B189B7E8024D3185E78A023DB05DF68F1
:10542000E4033C43DC60019CB60624040094DF687E
:10543000B60EBC46114F64462740009C2743DF60F0
:10544000C0460F4F7600F619B68884002C19E6671F
:10545000DE680C4C3440DC60031CD4E7537E0A4900
:105460007C324B700423CB700F20B0230B7102F001
:1054700085F8F7BD64010020E00C0020FFFFC0FFAD
:1054800040000050FFFFBFFF6C01002008B5FFF790
:10549000ADFF074B07491A680F20537E7C324B70D3
:1054A0000423CB70B0230B7102F068F808BDC0462E
:1054B000640100206C010020044B00225A70A023DC
:1054C000DB055A7001221A707047C046C40C0020D8
:1054D00008B50120FFF76AFB034B00229A70A02356
:1054E0000122DB059A7008BDC40C0020014B1B682B
:1054F000586F704764010020014B1B685867704764
:105500006401002030B5A023DB051D7919791879D5
:105510001A791C792B077F25A843DB0F80101843CD
:1055200056232340184301230B40DB00184320235C
:1055300013409B00184330BD38B5051CFFF7E2FF50
:10554000041CAC4207D001DA013400E0013CE0B2B7
:10555000FFF720FCF5E738BD08B50120FFF764FB35
:105560000020FFF79FFB0020FFF7D8FBA023DB05FF
:105570009A6801218A439A609A6880218A439A60D6
:105580009968024A0A409A6008BDC046FFFFEFFFD3
:1055900010B5154C23687C3318784007C00FFFF70F
:1055A00043FB23687B3318780007000FFFF77AFB73
:1055B00023687B3318780009FFF7B0FBA023DB05D5
:1055C0009A6801210A439A609A6880210A439A6086
:1055D0009968802252030A43FA209A60800000F002
:1055E0006FFBFFF799FD10BDE00C002008B500200F
:1055F000FFF792FE08BD0000034B1B689878C006B9
:10560000800E01307047C046E00C0020024B1B6842
:1056100058784007400F7047E00C0020034B1B6890
:1056200043331878C006800E01307047E00C00202C
:10563000034B1B68423318784007400F7047C04641
:10564000E00C0020004870470010005000487047F0
:10565000002000500048704700400050054B1A6879
:10566000054B90681B6840331B785843034B800000
:10567000C0187047900300206401002004400050CF
:10568000054B1A68054B90681B684C331B785843D0
:10569000034B8000C0187047900300206401002075
:1056A00004400050F7B52F4B04221C682378191CC6
:1056B000914355D05BB2022B02D1FAF7EBFE4FE0DB
:1056C000032B4DD0012B15D1FFF7DAFF264B00221B
:1056D0001B68DB799D004519511ED218002A3FD066
:1056E000E218521820321278920016588A00AE50F2
:1056F0000A1CF1E7052B33D11B4B1C4A1C681668AA
:10570000231C6B331D78237A581E0FD3E279013A9C
:105710000AD3B768511C5F43C919154F8900C919CD
:105720000F68EF400F60F2E7031CEDE7FFF796FF0D
:10573000237B002201339C46614601398C460FD3FE
:10574000E17A9600019186190023019F9F4205D0BE
:105750009F00F1590133E940F151F6E7D219EBE727
:10576000F7BDC04664010020E40C00209003002037
:105770000040005010B5A023DB0501245C7001F04F
:105780003DFFFFF7BFFE201CFFF7C6FD01F036FF0F
:10579000FFF7B8FEFFF7E2FDFFF784FF10BD000042
:1057A00070B5041C104E114D11D10120FFF7F2FD10
:1057B000336801221A70A023DB056C705C701A70CC
:1057C000FFF7D8FFFFF7CAFDFFF760FE0224201C99
:1057D000FFF7E0FD336800221C70A023DB056A7030
:1057E0005A7001221A7070BD64010020C40C0020A0
:1057F00008B5FFF7D5FFFFF7BDFF08BD054B1A68D9
:10580000054B90681B6850331B785843034B80004E
:10581000C01870479003002064010020044000502D
:10582000054B1A68054B90681B6854331B78584326
:10583000034B8000C01870479003002064010020D3
:1058400004400050054B1A68054B90681B684433B0
:105850001B785843034B8000C0187047900300200A
:105860006401002004400050A02380B2DB05D882F0
:105870009882704773B5FFF745FE1C4C2368793357
:1058800058781A78000210439A78DB781204104393
:105890001B061843FFF74AF9236879331C78FFF792
:1058A00051FB134D002813D0124B134A1B7812786A
:1058B0002E6852B25BB20092201CEF22102101F040
:1058C0003FFF2B68B0679B6FE4180C4B1A781B786E
:1058D000002C01DA002402E0FF2C00DDFF242B68FD
:1058E000E0B25C67FFF728FE73BDC046E00C002005
:1058F0006401002051000200520002005400020026
:1059000008B5002801D0012801D101F09DF9FFF769
:10591000B1FFFFF711FCFFF7B3FB08BDF7B5041C9F
:1059200002F030FC124B1A6800231069411C0191EF
:10593000019DD6689D420CDB576901367E43990074
:105940008C469E1900216546B600615101333151E4
:10595000EEE701239E420ADB556900215D43AF005B
:105960002D180135AD00395101332951F2E7F7BD4A
:1059700090030020044B054900221A6059609A6088
:1059800005221A607047C04610E000E0FFFFFF00EC
:1059900038B5A023DB05DC790C4B6407E40F1B68EA
:1059A0000134A040041C9D6FFFF7ACFD32212D1A7D
:1059B000FF35FF316943064B0648C918FAF798FBD3
:1059C000C1B2201CFAF794FB38BDC0466401002028
:1059D0008E64000040420F00014B00221A607047A5
:1059E00010E000E013B50B4C0B48A368C01A0193FC
:1059F000FFF7CEFF094901234B7004230190CB70C0
:105A000000206F2301AA0B7101F0B8FD002301985B
:105A1000236016BD10E000E0FFFFFF006C010020D6
:105A200010B5041CFFF7A6FF201CFFF7B9FEA0234A
:105A3000DB0501205870FFF781FCFFF78FFCFFF7B3
:105A400031FEFFF7CFFF10BDF7B5234800F038F95E
:105A5000FFF762FB214F0025214E224CB7421FD297
:105A60008036F31B2026832B00DC9E1001236670FA
:105A700000203A1C211CB610E370207101F07EFD5D
:105A80003B1C321C013A08D3002D04D1164918687A
:105A9000884200D01D1C0433F4E7B600BF19DBE7D1
:105AA0000E4904226B1A01270193E270A723211CDF
:105AB00001AA002067702371843601F05FFD042382
:105AC000751BE3700020A823211C01AA01956770B3
:105AD000237101F053FDF7BD801A0600140D00205C
